:020000040800F2
:1000000000280020E50D00081D0D0008230D000844
:10001000290D00082F0D0008350D00080000000014
:100020000000000000000000000000003B0D000880
:10003000470D000800000000530D00085F0D000888
:100040002D0E00082D0E00082D0E00082D0E0008A4
:100050002D0E00082D0E00082D0E00082D0E000894
:100060002D0E00082D0E00082D0E00082D0E000884
:100070002D0E00082D0E00082D0E00082D0E000874
:100080002D0E00082D0E00082D0E00082D0E000864
:100090002D0E00082D0E00082D0E00082D0E000854
:1000A0002D0E00082D0E00082D0E00082D0E000844
:1000B0002D0E00082D0E0008000000002D0E000877
:1000C0002D0E000800000000000000002D0E0008AA
:1000D000000000002D0E00082D0E0008000000009A
:1000E0002D0E00082D0E00082D0E00080000000047
:1000F0000000000000000000000000000000000000
:0C01000000000000000000005FF808F1A3
:1001100010B5054C237833B9044B13B10448AFF341
:1001200000800123237010BD70000020000000003B
:100130001033000808B5034B1BB103490348AFF364
:10014000008008BD0000000074000020103300088B
:10015000034613F8012B002AFBD1181A0138704707
:1001600081F0004102E000BF83F0004330B54FEA68
:1001700041044FEA430594EA050F08BF90EA020FD5
:100180001FBF54EA000C55EA020C7FEA645C7FEA68
:10019000655C00F0E2804FEA5454D4EB5555B8BF8B
:1001A0006D420CDD2C4480EA020281EA030382EAFC
:1001B000000083EA010180EA020281EA0303362D8E
:1001C00088BF30BD11F0004F4FEA01314FF4801C61
:1001D0004CEA113102D0404261EB410113F0004F73
:1001E0004FEA03334CEA133302D0524263EB43032A
:1001F00094EA050F00F0A780A4F10104D5F1200EC8
:100200000DDB02FA0EFC22FA05F2801841F1000122
:1002100003FA0EF2801843FA05F359410EE0A5F1F6
:1002200020050EF1200E012A03FA0EFC28BF4CF027
:10023000020C43FA05F3C01851EBE37101F00045DD
:1002400007D54FF0000EDCF1000C7EEB00006EEBEA
:100250000101B1F5801F1BD3B1F5001F0CD3490874
:100260005FEA30004FEA3C0C04F101044FEA4452CB
:1002700012F5800F80F09A80BCF1004F08BF5FEA52
:10028000500C50F1000041EB045141EA050130BD32
:100290005FEA4C0C404141EB010111F4801FA4F1D5
:1002A0000104E9D191F0000F04BF01460020B1FA2A
:1002B00081F308BF2033A3F10B03B3F120020CDA62
:1002C0000C3208DD02F1140CC2F10C0201FA0CF040
:1002D00021FA02F10CE002F11402D8BFC2F1200CA5
:1002E00001FA02F120FA0CFCDCBF41EA0C0190405B
:1002F000E41AA2BF01EB0451294330BD6FEA0404A4
:100300001F3C1CDA0C340EDC04F11404C4F120028E
:1003100020FA04F001FA02F340EA030021FA04F3A0
:1003200045EA030130BDC4F10C04C4F1200220FAF7
:1003300002F001FA04F340EA0300294630BD21FA35
:1003400004F0294630BD94F0000F83F4801306BFFB
:1003500081F480110134013D4EE77FEA645C18BFEF
:100360007FEA655C29D094EA050F08BF90EA020F86
:1003700005D054EA000C04BF1946104630BD91EA7E
:10038000030F1EBF0021002030BD5FEA545C05D181
:100390004000494128BF41F0004130BD14F58004C0
:1003A0003CBF01F5801130BD01F0004545F0FE4134
:1003B00041F470014FF0000030BD7FEA645C1ABF69
:1003C000194610467FEA655C1CBF0B46024650EAA0
:1003D000013406BF52EA033591EA030F41F40021CC
:1003E00030BD00BF90F0000F04BF0021704730B552
:1003F0004FF4806404F132044FF000054FF0000127
:1004000050E700BF90F0000F04BF0021704730B5E7
:100410004FF4806404F1320410F0004548BF4042BC
:100420004FF000013EE700BF42004FEAE2014FEA11
:1004300031014FEA02701FBF12F07F4393F07F4FEC
:1004400081F06051704732F07F4208BF704793F0EF
:100450007F4F04BF41F40021704730B54FF4607402
:1004600001F0004521F000411CE700BF50EA010205
:1004700008BF704730B54FF000050AE050EA0102AE
:1004800008BF704730B511F0004502D5404261EB1E
:1004900041014FF4806404F132045FEA915C3FF45F
:1004A000D8AE4FF003025FEADC0C18BF03325FEAFC
:1004B000DC0C18BF033202EBDC02C2F1200300FAAD
:1004C00003FC20FA02F001FA03FE40EA0E0021FAD2
:1004D00002F11444BDE600BF70B54FF0FF0C4CF4C0
:1004E000E06C1CEA11541DBF1CEA135594EA0C0F72
:1004F00095EA0C0F00F0DEF82C4481EA030621EAAD
:100500004C5123EA4C5350EA013518BF52EA0335E7
:1005100041F4801143F4801338D0A0FB02CE4FF099
:100520000005E1FB02E506F00042E0FB03E54FF0C9
:100530000006E1FB03569CF0000F18BF4EF0010EC1
:10054000A4F1FF04B6F5007F64F5407404D25FEABD
:100550004E0E6D4146EB060642EAC62141EA555170
:100560004FEAC52040EA5E504FEACE2EB4F1FD0CB2
:1005700088BFBCF5E06F1ED8BEF1004F08BF5FEA30
:10058000500E50F1000041EB045170BD06F00046E2
:1005900046EA010140EA020081EA0301B4EB5C048F
:1005A000C2BFD4EB0C0541EA045170BD41F4801187
:1005B0004FF0000E013C00F3AB8014F1360FDEBFAC
:1005C000002001F0004170BDC4F10004203C35DA88
:1005D0000C341BDC04F11404C4F1200500FA05F30B
:1005E00020FA04F001FA05F240EA020001F00042AC
:1005F00021F0004110EBD37021FA04F642EB060122
:100600005EEA430E08BF20EAD37070BDC4F10C044B
:10061000C4F1200500FA04F320FA05F001FA04F20F
:1006200040EA020001F0004110EBD37041F10001FB
:100630005EEA430E08BF20EAD37070BDC4F1200506
:1006400000FA05F24EEA020E20FA04F301FA05F26E
:1006500043EA020321FA04F001F0004121FA04F216
:1006600020EA020000EBD3705EEA430E08BF20EAE6
:10067000D37070BD94F0000F0FD101F00046400020
:1006800041EB010111F4801F08BF013CF7D041EAA2
:10069000060195F0000F18BF704703F000465200A6
:1006A00043EB030313F4801F08BF013DF7D043EA77
:1006B0000603704794EA0C0F0CEA135518BF95EA2D
:1006C0000C0F0CD050EA410618BF52EA4306D1D1B4
:1006D00081EA030101F000414FF0000070BD50EAD3
:1006E000410606BF1046194652EA430619D094EA5D
:1006F0000C0F02D150EA013613D195EA0C0F05D147
:1007000052EA03361CBF104619460AD181EA03019A
:1007100001F0004141F0FE4141F470014FF0000052
:1007200070BD41F0FE4141F4780170BD70B54FF0ED
:10073000FF0C4CF4E06C1CEA11541DBF1CEA13556D
:1007400094EA0C0F95EA0C0F00F0A7F8A4EB05044F
:1007500081EA030E52EA03354FEA013100F0888046
:100760004FEA03334FF0805545EA131343EA12630F
:100770004FEA022245EA111545EA10654FEA0026C4
:100780000EF000419D4208BF964244F1FD0404F57D
:10079000407402D25B084FEA3202B61A65EB0305D9
:1007A0005B084FEA32024FF480104FF4002CB6EB96
:1007B000020E75EB030E22BFB61A754640EA0C0016
:1007C0005B084FEA3202B6EB020E75EB030E22BF56
:1007D000B61A754640EA5C005B084FEA3202B6EB97
:1007E000020E75EB030E22BFB61A754640EA9C0056
:1007F0005B084FEA3202B6EB020E75EB030E22BF26
:10080000B61A754640EADC0055EA060E18D04FEAE3
:10081000051545EA16754FEA06164FEAC30343EA83
:1008200052734FEAC2025FEA1C1CC0D111F4801F50
:100830000BD141EA00014FF000004FF0004CB6E749
:1008400011F4801F04BF01430020B4F1FD0C88BFE8
:10085000BCF5E06F3FF6AFAEB5EB030C04BFB6EBF3
:10086000020C5FEA500C50F1000041EB045170BDE6
:100870000EF0004E4EEA113114EB5C04C2BFD4EB13
:100880000C0541EA045170BD41F480114FF0000E97
:10089000013C90E645EA060E8DE60CEA135594EA13
:1008A0000C0F08BF95EA0C0F3FF43BAF94EA0C0F16
:1008B0000AD150EA01347FF434AF95EA0C0F7FF48B
:1008C00025AF104619462CE795EA0C0F06D152EADF
:1008D00003353FF4FDAE1046194622E750EA4106C3
:1008E00018BF52EA43067FF4C5AE50EA41047FF4D4
:1008F0000DAF52EA43057FF4EBAE12E74A0011D286
:1009000012F5001211D20DD56FF47873B3EB625269
:100910000ED44FEAC12343F0004343EA505323FA75
:1009200002F070474FF00000704750EA013002D1EA
:100930004FF0FF3070474FF000007047000000009C
:1009400090B583B000AF00F073FA00F05DF800F0EE
:1009500013F900F0A9F800F0E5F8254800F0C4FB11
:100960001421234800F06EFC214800F071FD03467D
:100970009AB2204B1A80204B7B601E4B1B88184676
:10098000FFF740FD16A3D3E90023FFF7A5FD0346BB
:100990000C461846214614A3D3E90023FFF79CFD1B
:1009A00003460C4618462146FFF7A8FF03467B8006
:1009B0007B881A461149124802F098F81048FFF750
:1009C000C7FB03469AB24FF0FF330D490D4801F0C3
:1009D000F0FE4FF4FA7000F08DFABEE7AFF300803E
:1009E000B4D934E70C684A3F3333333333331240DE
:1009F000B00000208C0000206740533A28330008E4
:100A00009C000020E000002080B594B000AF07F10A
:100A1000280328220021184602F060F807F1140389
:100A200000221A605A609A60DA601A613B1D002247
:100A30001A605A609A60DA600223BB620123BB63CA
:100A40001023FB6300237B6407F12803184601F0A1
:100A5000D5F80346002B01D000F0A4F80F237B61EA
:100A60000023BB610023FB6100233B6200237B6208
:100A700007F114030021184601F040FB0346002B48
:100A800001D000F08FF802237B600023FB603B1D48
:100A9000184601F0CFFC0346002B01D000F082F88D
:100AA00000BF5037BD4680BD80B584B000AF3B1D50
:100AB00000221A605A609A60184B194A1A60174B44
:100AC00000229A60154B00221A73144B00221A75EB
:100AD000124B4FF46022DA61104B00225A600F4B28
:100AE00001221A610D4800F027FA0346002B01D0BD
:100AF00000F058F800237B600123BB600323FB60F8
:100B00003B1D1946054800F0AFFC0346002B01D001
:100B100000F048F800BF1037BD4680BDB00000208F
:100B20000024014080B500AF114B124A1A60104BEF
:100B30004FF4E1325A600E4B00229A600C4B0022B7
:100B4000DA600B4B00221A61094B0C225A61084BE8
:100B500000229A61064B0022DA61054801F0DCFDB3
:100B60000346002B01D000F01DF800BF80BD00BF80
:100B7000E00000200044004080B483B000AF084B88
:100B80009B69074A43F004039361054B9B6903F09B
:100B900004037B607B6800BF0C37BD4680BC704798
:100BA0000010024080B400AF72B6FEE780B485B09A
:100BB00000AF154B9B69144A43F001039361124B3C
:100BC0009B6903F00103BB60BB680F4BDB690E4AF6
:100BD00043F08053D3610C4BDB6903F080537B609F
:100BE0007B680A4B5B68FB60FB6823F0E063FB609B
:100BF000FB6843F08063FB60044AFB68536000BFFE
:100C00001437BD4680BC7047001002400000014010
:100C100080B588B000AF786007F1100300221A6039
:100C20005A609A60DA607B681B68144A934221D14B
:100C3000134B9B69124A43F400739361104B9B69F9
:100C400003F40073FB60FB680D4B9B690C4A43F097
:100C5000040393610A4B9B6903F00403BB60BB6808
:100C600001233B6103237B6107F11003194605480B
:100C700000F072FE00BF2037BD4680BD0024014059
:100C8000001002400008014080B588B000AF7860D5
:100C900007F1100300221A605A609A60DA607B68DC
:100CA0001B681B4A93422FD11A4BDB69194A43F444
:100CB0000033D361174BDB6903F40033FB60FB683F
:100CC000144B9B69134A43F004039361114B9B69D6
:100CD00003F00403BB60BB6804233B6102237B6118
:100CE0000323FB6107F1100319460B4800F034FEA3
:100CF00008233B6100237B610023BB6107F11003E4
:100D00001946054800F028FE00BF2037BD4680BDCB
:100D100000440040001002400008014080B400AFD1
:100D2000FEE780B400AFFEE780B400AFFEE780B41A
:100D300000AFFEE780B400AFFEE780B400AF00BFB5
:100D4000BD4680BC704780B400AF00BFBD4680BCCC
:100D5000704780B400AF00BFBD4680BC704780B50F
:100D600000AF00F0ABF800BF80BD000080B586B0DA
:100D700000AF7860144A154BD31A7B617B693B61E5
:100D8000134B1B68002B02D1114B124A1A60104BF7
:100D90001A687B6813443A699A4207D201F074FEDC
:100DA00002460C2313604FF0FF3309E0084B1B6829
:100DB000FB60074B1A687B681344054A1360FB68A5
:100DC00018461837BD4680BD0028002000040000EA
:100DD000900000203001002080B400AF00BFBD466D
:100DE00080BC70470C480D490D4A002302E0D458DE
:100DF000C4500433C4188C42F9D30A4A0A4C002365
:100E000001E013600432A242FBD3FFF7E5FF01F0DB
:100E100041FEFFF795FD70470000002070000020A4
:100E2000B8330008700000202C010020FEE700000D
:100E300080B500AF084B1B68074A43F010031360EE
:100E4000032000F055FD002000F008F8FFF7AEFE8B
:100E50000023184680BD00BF0020024080B582B04C
:100E600000AF7860124B1A68124B1B7819464FF48A
:100E70007A73B3FBF1F3B2FBF3F3184600F05FFDB6
:100E80000346002B01D001230EE07B680F2B0AD80C
:100E9000002279684FF0FF3000F035FD064A7B688C
:100EA0001360002300E0012318460837BD4680BDCB
:100EB00000000020080000200400002080B400AFE3
:100EC000054B1B781A46054B1B681344034A1360F5
:100ED00000BFBD4680BC70470800002024010020F0
:100EE00080B400AF024B1B681846BD4680BC7047FB
:100EF0002401002080B584B000AF7860FFF7F0FFD8
:100F0000B8607B68FB60FB68B3F1FF3F05D0094B1D
:100F10001B781A46FB681344FB6000BFFFF7E0FF35
:100F20000246BB68D31AFA689A42F7D800BF103756
:100F3000BD4680BD0800002080B586B000AF786057
:100F40000023FB7500233B610023BB600023FB6093
:100F50007B68002B01D10123BEE07B689B68002BDE
:100F60007B689B6A002B09D17B680022DA627B6870
:100F7000002283F824207868FFF74AFE786800F0A2
:100F8000C5FB0346FB757B689B6A03F01003002BCF
:100F900040F09980FB7D002B40F095807B689B6A38
:100FA00023F4885323F0020343F002027B689A6221
:100FB0007B685A687B68DB691A437B681B7B5B0034
:100FC0001343BA681343BB607B689B68B3F5807FAB
:100FD00003D07B689B68012B02D14FF4807300E043
:100FE00000233A6913433B617B681B7D012B19D1B8
:100FF0007B681B7B002B09D17B689B69013B5A03F3
:101000003B69134343F400633B610BE07B689B6ADD
:1010100043F020027B689A627B68DB6A43F001023E
:101020007B68DA627B681B685B6823F469417B68D4
:101030001B683A690A435A607B681B689A68284BA8
:1010400013407A681268B9680B4393607B689B68A9
:10105000B3F5807F03D07B689B68012B04D17B684C
:101060001B69013B1B05FB607B681B68DB6A23F483
:1010700070017B681B68FA680A43DA627B681B6848
:101080009A68184B1340BA689A420BD17B680022C9
:10109000DA627B689B6A23F0030343F001027B68FA
:1010A0009A6218E07B689B6A23F0120343F01002F7
:1010B0007B689A627B68DB6A43F001027B68DA62D4
:1010C0000123FB7507E07B689B6A43F010027B6895
:1010D0009A620123FB75FB7D18461837BD4680BD1B
:1010E000FDF7E1FFFE0E1FFF80B584B000AF786012
:1010F0000023FB737B6893F82430012B01D102237A
:1011000098E07B68012283F82420786800F0A4FA34
:101110000346FB73FB7B002B40F087807B689B6A58
:1011200023F4407323F0010343F480727B689A62D6
:101130007B681B68414A934205D1414B5B6803F4CD
:101140007023002B15D17B689B6A23F480127B6887
:101150009A627B681B685B6803F48063002B26D06F
:101160007B689B6A23F4405343F480527B689A6205
:101170001DE07B689B6A43F480127B689A627B68FF
:101180001B682F4A934204D07B681B682B4A93420A
:101190000DD12B4B5B6803F48063002B07D07B6879
:1011A0009B6A23F4405343F480527B689A627B68C5
:1011B0009B6A03F48053002B06D07B68DB6A23F024
:1011C00006027B68DA6202E07B680022DA627B68F2
:1011D000002283F824207B681B686FF002021A60EB
:1011E0007B681B689B6803F46023B3F5602F13D101
:1011F0007B681B68114A934205D1114B5B6803F46D
:101200007023002B08D17B681B689A687B681B6879
:1012100042F4A0029A600CE07B681B689A687B68C5
:101220001B6842F480129A6003E07B68002283F816
:101230002420FB7B18461037BD4680BD00280140A6
:101240000024014090B587B000AF7860396000237A
:101250007B610023FB6000233B61FFF741FE786167
:101260007B681B689B6803F48073002B0BD07B6842
:101270009B6A43F020027B689A627B68002283F8B5
:1012800024200123D3E07B681B685B6803F4807330
:10129000002B31D17B681B68DB6A03F47003002BE1
:1012A0002AD121E03B68B3F1FF3F1DD03B68002B02
:1012B00007D0FFF715FE02467B69D31A3A689A42B7
:1012C00012D27B681B681B6803F00203002B0BD152
:1012D0007B689B6A43F004027B689A627B68002209
:1012E00083F824200323A2E07B681B681B6803F0BB
:1012F0000203002BD6D070E04F4B1C68022001F097
:101300004FF90346B4FBF3F27B681B6819694B4B3A
:101310000B40002B18D17B681B68D968484B0B40E9
:10132000002B11D17B681B681969464B0B40002BC1
:1013300008D17B681B68D968434B0B40002B01D157
:10134000142320E029231EE07B681B6819693D4BAC
:101350000B40002B06D17B681B68D9683A4B0B40C9
:10136000002B0DD07B681B681969384B0B40002B94
:1013700008D17B681B68D968344B0B40002B01D126
:10138000542300E0FC2302FB03F33B6121E03B68B4
:10139000B3F1FF3F1AD03B68002B07D0FFF7A0FD49
:1013A00002467B69D31A3A689A420FD2FB683A69BF
:1013B0009A420BD97B689B6A43F004027B689A626D
:1013C0007B68002283F82420032330E0FB6801338C
:1013D000FB60FB683A699A42D9D87B681B686FF05A
:1013E00012021A607B689B6A43F400727B689A62FF
:1013F0007B681B689B6803F46023B3F5602F15D1ED
:101400007B681B7B002B11D17B689B6A23F4807265
:101410007B689A627B689B6A03F48053002B05D13A
:101420007B689B6A43F001027B689A62002318463E
:101430001C37BD4690BD00BF000000202449922407
:10144000244992009224491292244900499224008E
:1014500080B483B000AF78607B681B68DB6C184693
:101460000C37BD4680BC704780B485B000AF786053
:1014700039600023FB730023BB607B6893F8243042
:10148000012B01D10223DCE07B68012283F82420B8
:101490003B685B68062B1CD87B681B68596B3B68F4
:1014A0005A6813469B001344053B1F2202FA03F3BC
:1014B000DB4319403B6818683B685A6813469B0039
:1014C0001344053B00FA03F27B681B680A435A6326
:1014D0003CE03B685B680C2B1CD87B681B68196B75
:1014E0003B685A6813469B001344233B1F2202FAB1
:1014F00003F3DB4319403B6818683B685A6813469E
:101500009B001344233B00FA03F27B681B680A43E9
:101510001A631BE07B681B68D96A3B685A681346EC
:101520009B001344413B1F2202FA03F3DB431940A3
:101530003B6818683B685A6813469B001344413B5C
:1015400000FA03F27B681B680A43DA623B681B6897
:10155000092B1CD97B681B68D9683B681A6813463D
:101560005B0013441E3B072202FA03F3DB431940DE
:101570003B6898683B681A6813465B0013441E3B3F
:1015800000FA03F27B681B680A43DA6019E07B68A3
:101590001B6819693B681A6813465B0013440722ED
:1015A00002FA03F3DB4319403B6898683B681A680A
:1015B00013465B00134400FA03F27B681B680A437E
:1015C0001A613B681B68102B03D03B681B68112B0A
:1015D00032D17B681B681D4A934225D17B681B680A
:1015E0009B6803F40003002B26D17B681B689A6874
:1015F0007B681B6842F400029A603B681B68102BF2
:101600001AD1134B1B68134AA2FB03239A0C1346EF
:101610009B0013445B00BB6002E0BB68013BBB6006
:10162000BB68002BF9D107E07B689B6A43F020027E
:101630007B689A620123FB737B68002283F8242075
:10164000FB7B18461437BD4680BC70470024014020
:101650000000002083DE1B4380B584B000AF7860BB
:101660000023FB600023BB607B681B689B6803F062
:101670000103012B40D07B681B689A687B681B685C
:1016800042F001029A601F4B1B681F4AA2FB032312
:101690009B0CBB6002E0BB68013BBB60BB68002BDE
:1016A000F9D1FFF71DFCF8601FE0FFF719FC0246B7
:1016B000FB68D31A022B18D97B681B689B6803F060
:1016C0000103012B11D07B689B6A43F010027B68F9
:1016D0009A627B68DB6A43F001027B68DA627B68AE
:1016E000002283F82420012307E07B681B689B68A5
:1016F00003F00103012BD8D1002318461037BD4653
:1017000080BD00BF0000002083DE1B4380B584B095
:1017100000AF78600023FB607B681B689B6803F068
:101720000103012B2ED17B681B689A687B681B68BC
:1017300022F001029A60FFF7D3FBF8601BE0FFF78D
:10174000CFFB0246FB68D31A022B14D97B681B68B7
:101750009B6803F00103012B0DD17B689B6A43F06A
:1017600010027B689A627B68DB6A43F001027B6847
:10177000DA62012307E07B681B689B6803F00103C2
:10178000012BDCD0002318461037BD4680BD000079
:1017900080B485B000AF78607B6803F00703FB601E
:1017A0000C4BDB68BB60BA684FF6FF031340BB60AD
:1017B000FB681A02BB68134343F0BF6343F4003372
:1017C000BB60044ABB68D36000BF1437BD4680BC11
:1017D000704700BF00ED00E080B400AF044BDB6851
:1017E0001B0A03F007031846BD4680BC704700BFC4
:1017F00000ED00E080B483B000AF03463960FB71B8
:1018000097F90730002B0ADB3B68DAB20C4997F9ED
:1018100007301201D2B20B4483F800230AE03B6880
:10182000DAB20849FB7903F00F03043B1201D2B28C
:101830000B441A7600BF0C37BD4680BC704700BF12
:1018400000E100E000ED00E080B489B000AFF86096
:10185000B9607A60FB6803F00703FB61FB69C3F1C1
:101860000703042B28BF0423BB61FB690433062B49
:1018700002D9FB69033B00E000237B614FF0FF329C
:10188000BB6902FA03F3DA43BB681A407B699A40EA
:101890004FF0FF317B6901FA03F3D9437B680B40BA
:1018A000134318462437BD4680BC704780B582B0CC
:1018B00000AF78607B68013BB3F1807F01D30123E7
:1018C0000FE00A4A7B68013B53600F214FF0FF3065
:1018D000FFF790FF054B00229A60044B07221A6025
:1018E000002318460837BD4680BD00BF10E000E069
:1018F00080B582B000AF78607868FFF749FF00BF1D
:101900000837BD4680BD80B586B000AF0346B960DC
:101910007A60FB7300237B61FFF75EFF78617A6872
:10192000B9687869FFF790FF024697F90F301146C2
:101930001846FFF75FFF00BF1837BD4680BD80B572
:1019400082B000AF78607868FFF7B0FF03461846B2
:101950000837BD4680BD000080B48BB000AF786012
:10196000396000237B6200233B6221E101227B6A14
:1019700002FA03F3FB613B681B68FA691340BB6121
:10198000BA69FB699A4240F010813B685B68122B90
:1019900034D0122B0DD8022B2BD0022B04D8002BC5
:1019A00031D0012B1CD048E0032B43D0112B1BD08E
:1019B00043E0864A934226D0844A934206D8844A1A
:1019C000934220D0834A93421DD036E0824A93420C
:1019D00019D0824A934216D0814A934213D02CE008
:1019E0003B68DB683B6228E03B68DB6804333B62B2
:1019F00023E03B68DB6808333B621EE03B68DB6842
:101A00000C333B6219E03B689B68002B02D1042336
:101A10003B6212E03B689B68012B05D108233B62C7
:101A20007B68FA691A6108E008233B627B68FA69FF
:101A30005A6102E000233B6200BFBB69FF2B01D863
:101A40007B6801E07B6804337B61BB69FF2B02D8B4
:101A50007B6A9B0002E07B6A083B9B003B617B69E1
:101A60001A680F213B6901FA03F3DB431A40396A14
:101A70003B6901FA03F31A437B691A603B685B68B0
:101A800003F08053002B00F09080564B9B69554A21
:101A900043F001039361534B9B6903F00103BB6067
:101AA000BB68514A7B6A9B08023352F82330FB60C3
:101AB0007B6A03F003039B000F2202FA03F3DB436C
:101AC000FA681340FB607B68484A93420DD07B68FC
:101AD000474A934207D07B68464A934201D102238A
:101AE00004E0032302E0012300E000237A6A02F00D
:101AF000030292009340FA681343FB603A497B6A01
:101B00009B080233FA6841F823203B685B6803F4C2
:101B10008033002B06D0384B1A683749BB69134312
:101B20000B6006E0344B1A68BB69DB433249134053
:101B30000B603B685B6803F40033002B06D02E4B30
:101B40005A682D49BB6913434B6006E02A4B5A681B
:101B5000BB69DB43284913404B603B685B6803F477
:101B60008013002B06D0244B9A682349BB6913438A
:101B70008B6006E0204B9A68BB69DB431E4913402B
:101B80008B603B685B6803F40013002B06D01A4B94
:101B9000DA681949BB691343CB6006E0164BDA6873
:101BA000BB69DB4314491340CB607B6A01337B6222
:101BB0003B681A687B6A22FA03F3002B7FF4D6AEE7
:101BC00000BF2C37BD4680BC704700BF000021100D
:101BD000000011100000121000003110000032103F
:101BE00000002210001002400000014000080140E7
:101BF000000C0140001001400004014080B586B097
:101C000000AF78607B68002B01D101236CE27B6818
:101C10001B6803F00103002B00F08780924B5B6888
:101C200003F00C03042B0CD08F4B5B6803F00C0308
:101C3000082B12D18C4B5B6803F48033B3F5803FE3
:101C40000BD1894B1B6803F40033002B6CD07B68ED
:101C50005B68002B68D1012346E27B685B68B3F5C3
:101C6000803F06D1804B1B687F4A43F4803313606A
:101C70002EE07B685B68002B0CD17B4B1B687A4A9B
:101C800023F480331360784B1B68774A23F4802356
:101C900013601DE07B685B68B3F5A02F0CD1724B1D
:101CA0001B68714A43F4802313606F4B1B686E4AB4
:101CB00043F4803313600BE06B4B1B686A4A23F4D8
:101CC00080331360684B1B68674A23F480231360DA
:101CD0007B685B68002B13D0FFF702F9386108E0DE
:101CE000FFF7FEF802463B69D31A642B01D90323A0
:101CF000FAE15D4B1B6803F40033002BF0D014E0D5
:101D0000FFF7EEF8386108E0FFF7EAF802463B69B2
:101D1000D31A642B01D90323E6E1534B1B6803F468
:101D20000033002BF0D100E000BF7B681B6803F09C
:101D30000203002B63D04C4B5B6803F00C03002BB9
:101D40000BD0494B5B6803F00C03082B1CD1464BAE
:101D50005B6803F48033002B16D1434B1B6803F000
:101D60000203002B05D07B681B69012B01D00123E6
:101D7000BAE13D4B1B6823F0F8027B685B69DB002E
:101D8000394913430B603AE07B681B69002B20D074
:101D9000364B01221A60FFF7A3F8386108E0FFF71D
:101DA0009FF802463B69D31A022B01D903239BE11A
:101DB0002D4B1B6803F00203002BF0D02A4B1B684D
:101DC00023F0F8027B685B69DB00274913430B6053
:101DD00015E0264B00221A60FFF782F8386108E010
:101DE000FFF77EF802463B69D31A022B01D9032381
:101DF0007AE11D4B1B6803F00203002BF0D17B68D6
:101E00001B6803F00803002B3AD07B689B69002B0A
:101E100019D0174B01221A60FFF762F8386108E009
:101E2000FFF75EF802463B69D31A022B01D9032360
:101E30005AE10D4B5B6A03F00203002BF0D0012046
:101E400000F0DAFA1CE00A4B00221A60FFF748F8AB
:101E500038610FE0FFF744F802463B69D31A022BC2
:101E600008D9032340E100BF0010024000004242B5
:101E7000800442429E4B5B6A03F00203002BE9D1CF
:101E80007B681B6803F00403002B00F0A68000238E
:101E9000FB75974BDB6903F08053002B0DD1944BFE
:101EA000DB69934A43F08053D361914BDB6903F0C4
:101EB0008053BB60BB680123FB758E4B1B6803F42A
:101EC0008073002B18D18B4B1B688A4A43F48073B4
:101ED0001360FFF705F8386108E0FFF701F80246E4
:101EE0003B69D31A642B01D90323FDE0814B1B68A6
:101EF00003F48073002BF0D07B68DB68012B06D1E4
:101F00007B4B1B6A7A4A43F0010313622DE07B6826
:101F1000DB68002B0CD1764B1B6A754A23F001035A
:101F20001362734B1B6A724A23F0040313621CE0B2
:101F30007B68DB68052B0CD16D4B1B6A6C4A43F048
:101F4000040313626A4B1B6A694A43F0010313627C
:101F50000BE0674B1B6A664A23F001031362644B74
:101F60001B6A634A23F0040313627B68DB68002B5F
:101F700015D0FEF7B5FF38610AE0FEF7B1FF024663
:101F80003B69D31A41F28832934201D90323ABE073
:101F9000574B1B6A03F00203002BEED014E0FEF750
:101FA0009FFF38610AE0FEF79BFF02463B69D31AA8
:101FB00041F28832934201D9032395E04C4B1B6ACE
:101FC00003F00203002BEED1FB7D012B05D1484B22
:101FD000DB69474A23F08053D3617B68DB69002BC0
:101FE00000F08180424B5B6803F00C03082B61D04A
:101FF0007B68DB69022B46D13F4B00221A60FEF75B
:102000006FFF386108E0FEF76BFF02463B69D31AA9
:10201000022B01D9032367E0354B1B6803F00073E3
:10202000002BF0D17B681B6AB3F5803F08D1304BA1
:102030005B6823F400327B689B682D4913434B6037
:102040002B4B5B6823F474127B68196A7B685B6AAC
:102050000B43274913434B60274B01221A60FEF7BD
:102060003FFF386108E0FEF73BFF02463B69D31AA9
:10207000022B01D9032337E01D4B1B6803F00073CB
:10208000002BF0D02FE01C4B00221A60FEF728FF37
:10209000386108E0FEF724FF02463B69D31A022BA1
:1020A00001D9032320E0124B1B6803F00073002BBF
:1020B000F0D118E07B68DB69012B01D1012313E02B
:1020C0000B4B5B68FB60FB6803F480327B681B6A28
:1020D0009A4206D1FB6803F470127B685B6A9A42ED
:1020E00001D0012300E0002318461837BD4680BD0B
:1020F00000100240007000406000424280B584B091
:1021000000AF786039607B68002B01D10123D0E0FB
:102110006A4B1B6803F007033A689A4210D9674B71
:102120001B6823F0070265493B6813430B60634B50
:102130001B6803F007033A689A4201D00123B8E014
:102140007B681B6803F00203002B20D07B681B68B0
:1021500003F00403002B05D0594B5B68584A43F445
:10216000E06353607B681B6803F00803002B05D015
:10217000534B5B68524A43F460535360504B5B6867
:1021800023F0F0027B689B684D4913434B607B68EA
:102190001B6803F00103002B40D07B685B68012BB8
:1021A00007D1474B1B6803F40033002B15D10123E3
:1021B0007FE07B685B68022B07D1414B1B6803F013
:1021C0000073002B09D1012373E03D4B1B6803F022
:1021D0000203002B01D101236BE0394B5B6823F034
:1021E00003027B685B68364913434B60FEF778FE59
:1021F000F8600AE0FEF774FE0246FB68D31A41F26B
:102200008832934201D9032353E02D4B5B6803F0DE
:102210000C027B685B689B009A42EBD1274B1B68E2
:1022200003F007033A689A4210D2244B1B6823F04C
:10223000070222493B6813430B60204B1B6803F0E5
:1022400007033A689A4201D0012332E07B681B6899
:1022500003F00403002B08D0194B5B6823F4E06201
:102260007B68DB68164913434B607B681B6803F08F
:102270000803002B09D0124B5B6823F460527B6883
:102280001B69DB000E4913434B6000F021F8014647
:102290000B4B5B681B0903F00F030A4AD35C21FA5E
:1022A00003F3094A1360094B1B681846FEF7D6FD75
:1022B000002318461037BD4680BD00BF00200240F5
:1022C00000100240643300080000002004000020D9
:1022D00090B48AB000AF2A4B3C1D0FCB84E80F00AE
:1022E000284B1B883B800023FB610023BB6100233C
:1022F0007B6200237B6100233B62234B5B68FB61B5
:10230000FB6903F00C03042B02D0082B03D02DE053
:102310001E4B3B622DE0FB699B0C03F00F0307F1A2
:102320002802134413F8243C7B61FB6903F48033D7
:10233000002B13D0144B5B685B0C03F0010307F117
:102340002802134413F8283CBB617B690F4A02FB47
:1023500003F2BB69B2FBF3F37B6204E07B690C4AD6
:1023600002FB03F37B627B6A3B6202E0074B3B624A
:1023700000BF3B6A18462837BD4690BC704700BF77
:102380003C3300084C3300080010024000127A0071
:1023900000093D0080B400AF024B1B681846BD46E3
:1023A00080BC70470000002080B500AFFFF7F2FF4F
:1023B0000146054B5B681B0A03F00703034AD35C25
:1023C00021FA03F3184680BD001002407433000860
:1023D00080B500AFFFF7DEFF0146054B5B68DB0A07
:1023E00003F00703034AD35C21FA03F3184680BDC8
:1023F000001002407433000880B485B000AF7860EC
:102400000A4B1B680A4AA2FB03235B0A7A6802FB99
:1024100003F3FB6000BFFB685A1EFA60002BF9D182
:1024200000BF1437BD4680BC704700BF00000020CD
:10243000D34D621080B586B000AF786000233B6159
:102440000023FB607B681B6803F00103002B7DD039
:102450000023FB754F4BDB6903F08053002B0DD13C
:102460004C4BDB694B4A43F08053D361494BDB69EA
:1024700003F08053BB60BB680123FB75464B1B68B0
:1024800003F48073002B18D1434B1B68424A43F47A
:1024900080731360FEF724FD386108E0FEF720FD2D
:1024A00002463B69D31A642B01D903236DE03A4BF2
:1024B0001B6803F48073002BF0D0364B1B6A03F4C7
:1024C0004073FB60FB68002B2ED07B685B6803F4D5
:1024D0004073FA689A4227D02E4B1B6A23F440734C
:1024E000FB602E4B01221A602C4B00221A60294AF5
:1024F000FB681362FB6803F00103002B14D0FEF7A6
:10250000EFFC38610AE0FEF7EBFC02463B69D31AA8
:1025100041F28832934201D9032336E01D4B1B6AF6
:1025200003F00203002BEED01A4B1B6A23F4407217
:102530007B685B68174913430B62FB7D012B05D158
:10254000144BDB69134A23F08053D3617B681B680B
:1025500003F00203002B08D00E4B5B6823F44042CB
:102560007B689B680B4913434B607B681B6803F0D7
:102570001003002B08D0074B5B6823F480027B68B4
:10258000DB68044913434B60002318461837BD46E7
:1025900080BD00BF00100240007000404004424275
:1025A00090B58DB000AF7860554B07F10C040FCBA0
:1025B00084E80F00534B1B883B8100237B62002380
:1025C000FB6200233B620023FB610023BB627B684C
:1025D000022B7FD0102B02D0012B48D08BE04A4B2E
:1025E0005B68FB61484B1B6803F08073002B7FD056
:1025F000FB699B0C03F00F0307F13002134413F83F
:10260000243C3B62FB6903F48033002B18D03E4B23
:102610005B685B0C03F0010307F13002134413F80D
:10262000283C7B62FB6903F48033002B0DD0374AD2
:102630007B6AB2FBF3F23B6A02FB03F3FB6204E04A
:102640003B6A334A02FB03F3FB622F4B5B6803F4E4
:102650008003B3F5800F02D1FB6ABB6248E0FB6ADE
:102660005B002C4AA2FB03235B08BB6240E0264BC5
:102670001B6AFB61FB6903F44073B3F5807F08D1EB
:10268000FB6903F00203002B03D04FF40043BB624D
:102690001FE0FB6903F44073B3F5007F09D11A4BC7
:1026A0005B6A03F00203002B03D049F64043BB6290
:1026B0000FE0FB6903F44073B3F5407F1AD1124B6E
:1026C0001B6803F40033002B14D04FF22443BB6289
:1026D00010E00FE0FFF77CFE02460B4B5B689B0BA4
:1026E00003F0030301335B00B2FBF3F3BB6202E0D0
:1026F00000BF00E000BFBB6A18463437BD4690BD3E
:1027000050330008603300080010024000127A00C5
:1027100000093D00ABAAAAAA80B582B000AF7860DC
:102720007B68002B01D101233FE07B6893F83D30AB
:10273000DBB2002B06D17B68002283F83C2078684E
:10274000FEF7A2FA7B68242283F83D207B681B6891
:10275000DA687B681B6822F40052DA60786800F05F
:1027600005F97B681B681A697B681B6822F4904234
:102770001A617B681B685A697B681B6822F02A0211
:102780005A617B681B68DA687B681B6842F40052F8
:10279000DA607B6800221A647B68202283F83D207F
:1027A0007B68202283F83E20002318460837BD4668
:1027B00080BD80B58AB002AFF860B9603B60134657
:1027C000FB8000237B61FB6893F83D30DBB2202B5C
:1027D0007CD1BB68002B02D0FB88002B01D10123E8
:1027E00075E0FB6893F83C30012B01D102236EE0C9
:1027F000FB68012283F83C20FB6800221A64FB6816
:10280000212283F83D20FEF76BFB7861FB68FA8894
:102810009A84FB68FA88DA84FB689B68B3F5805F6A
:1028200008D1FB681B69002B04D10023FB61BB6846
:10283000BB6103E0BB68FB610023BB61FB68002256
:1028400083F83C202AE03B6800937B6900228021CA
:10285000F86800F040F80346002B01D0032336E06F
:10286000FB69002B0BD1BB691B881A46FB681B68F0
:10287000C2F308025A60BB690233BB6107E0FB691F
:102880001A78FB681B685A60FB690133FB61FB68BF
:10289000DB8C9BB2013B9AB2FB68DA84FB68DB8C71
:1028A0009BB2002BCFD13B6800937B690022402173
:1028B000F86800F010F80346002B01D0032306E06F
:1028C000FB68202283F83D20002300E00223184605
:1028D0002037BD4680BD80B584B000AFF860B960D8
:1028E0003B601346FB712CE0BB69B3F1FF3F28D07E
:1028F000BB69002B07D0FEF7F3FA02463B68D31AF8
:10290000BA699A421DD2FB681B68DA68FB681B68CB
:1029100022F4D072DA60FB681B685A69FB681B6896
:1029200022F001025A61FB68202283F83D20FB68F7
:10293000202283F83E20FB68002283F83C200323FA
:102940000FE0FB681B681A68BB681340BA689A42BC
:102950000CBF01230023DBB21A46FB799A42C3D095
:10296000002318461037BD4680BD000080B584B0F6
:1029700000AF78607B681B681B6923F440517B685B
:10298000DA687B681B680A431A617B689A687B680F
:102990001B691A437B685B691343BB607B681B68D8
:1029A000DB6823F4B05323F00C037A681268B9682B
:1029B0000B43D3607B681B685B6923F440717B68C1
:1029C0009A697B681B680A435A617B681B682C4ABA
:1029D000934203D1FFF7FCFCF86002E0FFF7E4FC50
:1029E000F860FA6813469B0013449A001A447B6807
:1029F0005B689B00B2FBF3F3224AA2FB03235B0953
:102A00001901FA6813469B0013449A001A447B6824
:102A10005B689B00B2FBF3F21A4BA3FB02035B095A
:102A2000642000FB03F3D31A1B013233154AA2FBC7
:102A300003235B0903F0F0031944FA6813469B0073
:102A400013449A001A447B685B689B00B2FBF3F264
:102A50000C4BA3FB02035B09642000FB03F3D31AB6
:102A60001B013233074AA2FB03235B0903F00F0269
:102A70007B681B680A449A6000BF1037BD4680BD62
:102A8000003801401F85EB51014B1868704700BFAB
:102A90000C00002070B500250C4E0D4CA41BA4109A
:102AA000A54209D100F034FC00250A4E0A4CA41BB3
:102AB000A410A54205D170BD56F8253098470135C0
:102AC000EEE756F8253098470135F2E7B0330008B5
:102AD000B0330008B0330008B433000803460244A2
:102AE000934200D1704703F8011BF9E70EB46FF071
:102AF000004100B59CB01DAB029006900791049177
:102B00000848094953F8042B0591006802A901936C
:102B100000F066F80022029B1A701CB05DF804EB0E
:102B200003B070470C0000200802FFFF2DE9F047BA
:102B30008E6882469E420C469046994637D88A89CE
:102B400012F4906F31D00223256809696F1A656904
:102B500005EB450595FBF3F509F101033B449D4267
:102B600038BF1D46530530D5294600F037FB0646D1
:102B700050B90C234FF0FF30CAF80030A38943F05E
:102B80004003A381BDE8F0873A46216900F0B6FA18
:102B9000A38923F4906343F08003A38126613E441C
:102BA00026604E466561ED1BA5604E4500D94E4638
:102BB00032464146206800F0ACFAA36800209B1B17
:102BC000A36023681E442660DCE72A4600F060FB11
:102BD00006460028E2D12169504600F0B3FAC8E762
:102BE0002DE9F04F1D468B899DB01F0680460C468F
:102BF00016460FD50B696BB9402100F0EFFA206043
:102C0000206128B90C23C8F800304FF0FF30C8E02D
:102C1000402363610023099320238DF8293030235A
:102C20004FF0010B8DF82A30039537463D4615F8D5
:102C3000013B0BB1252B3ED1B7EB060A0BD0534617
:102C4000324621464046FFF771FF013000F0A48074
:102C5000099B534409933B78002B00F09D8000238F
:102C60004FF0FF32CDE90523049307938DF85330DD
:102C70001A932F46052217F8011B504800F030FA2E
:102C8000049BD0B9D90644BF20228DF853201A07DF
:102C900044BF2B228DF853202A782A2A15D02F469C
:102CA00000200A25079A394611F8013B303B092BD1
:102CB0004DD9B8B10FE02F46B8E7404A3D46801ADB
:102CC0000BFA00F018430490D3E7039A111D126821
:102CD0000391002A01DB079204E0524243F0020311
:102CE000079204933B782E2B0CD17B782A2B33D17F
:102CF000039B02371A1D1B680392002BB8BF4FF0CD
:102D0000FF3305932E4D03223978284600F0E8F969
:102D100038B14023401B03FA00F0049B0137034302
:102D200004933978062227487E1C8DF8281000F07D
:102D3000D7F9002838D0244B13BB039B073323F06B
:102D4000070308330393099B4B4409936DE705FB85
:102D5000023201200F46A6E700230A251946013753
:102D60000593384610F8012B303A092A03D9002B75
:102D7000C8D00591C6E705FB012101230746F0E70E
:102D800003AB00932246114B04A94046AFF30080E9
:102D9000B0F1FF3F8146D6D1A3895B063FF535AF41
:102DA00009981DB0BDE8F08F03AB00932246074B96
:102DB00004A9404600F082F8EAE700BF7C3300082F
:102DC0008233000886330008000000002D2B000825
:102DD0002DE9F04791461F468A680B6906469342E3
:102DE000B8BF1346C9F8003091F843200C46DDF80F
:102DF000208012B10133C9F800302368990642BF20
:102E0000D9F800300233C9F80030256815F00605FE
:102E100007D104F1190AE368D9F800209B1AAB42E4
:102E200029DC94F843302268003318BF012392064E
:102E30002ED404F1430239463046C047013021D038
:102E40002368E56803F00603042B18BF0025D9F8B2
:102E500000204FF0000908BFAD1AA368226908BF1F
:102E600025EAE5759342C4BF9B1AED181A344D4507
:102E70001AD1002008E00123524639463046C047A7
:102E8000013003D14FF0FF30BDE8F0870135C2E7D4
:102E90003020E11881F843005A1C94F84510224470
:102EA000023382F84310C4E70123224639463046F4
:102EB000C0470130E6D009F10109D8E72DE9F04318
:102EC00001F1430C0C46097E85B06E291746064673
:102ED00098460C9A00F0B38022D8632936D00AD8DD
:102EE000002900F0B980582900F0838004F14205E0
:102EF00084F8421032E0642901D06929F6D12068B3
:102F00001368050603F104012AD51B681160002B24
:102F100003DA2D225B4284F843206F480A2239E00D
:102F2000732900F09D8008D86F2920D07029DDD149
:102F3000236843F02003236003E0752917D0782924
:102F4000D4D17823654884F8453055E0136804F1FE
:102F50004205191D1B68116084F8423001238CE082
:102F60001B6810F0400F116018BF1BB2CFE7136849
:102F70002568181D1060280601D51B6802E0680648
:102F8000FBD51B886F2914BF0A2208225248002152
:102F900084F843106568002DA560C0F29580216813
:102FA00021F004012160002B3DD1002D40F08E80E6
:102FB0006546082A0BD12368DB0708D523696268B8
:102FC0009A42DEBF302305F8013C05F1FF35ACEB3A
:102FD00005032361CDF800803B4603AA2146304615
:102FE000FFF7F6FE01304DD14FF0FF3005B0BDE8E0
:102FF000F083394884F84510136821681D1D1B684B
:1030000015600A060BD5CA0744BF41F020012160B4
:103010001BB9226822F0200222601022B7E74D0679
:1030200048BF9BB2EFE76546B3FBF2F102FB1133F9
:10303000C35C05F8013D0B460029F5D1B9E71368DB
:103040002568181D6169106028061B6801D5196084
:1030500002E06A06FBD51980002365462361B9E7C3
:103060001368191D11601D6862680021284600F070
:1030700037F808B1401B606063682361002384F85F
:103080004330A7E723692A4639463046C047013016
:10309000AAD023689B0713D4E068039B9842B8BF6B
:1030A0001846A3E701234A4639463046C047013057
:1030B0009AD00135E368039A9B1AAB42F2DCEBE746
:1030C000002504F11909F5E7002BACD1037804F1D0
:1030D000420584F842306CE78D3300089E330008C7
:1030E00010B5C9B202449042034601D1002303E067
:1030F0001C7801308C42F6D1184610BD10B5431E25
:103100000A44914200D110BD11F8014B03F8014F60
:10311000F7E7884210B501EB020307D8421E994237
:103120000AD011F8014B02F8014FF8E78342F5D9B4
:103130008118D21AD34200D110BD13F8014D01F805
:10314000014DF7E738B50546002943D051F8043C56
:103150000C1F002BB8BFE41800F0D0F81E4A13680B
:10316000104633B9636014602846BDE8384000F06B
:10317000C6B8A3420BD921686218934201BF1A68EE
:103180005B685218226063600460EDE713465A687A
:103190000AB1A242FAD919685818A0420BD1206886
:1031A0000144581882421960DED110685268014407
:1031B00019605A60D8E702D90C232B60D4E7206845
:1031C00021188A4201BF11685268091821606260A3
:1031D0005C60C9E738BD00BF9400002070B5CD1C0D
:1031E00025F0030508350C2D38BF0C25002D0646AB
:1031F00001DBA94203D90C233360002070BD00F02D
:103200007DF8214A1468214691B9204C23681BB9E6
:10321000304600F063F820602946304600F05EF842
:10322000431C24D10C233046336000F068F8E4E7F7
:103230000B685B1B18D40B2B0FD90B60CC18CD502F
:10324000304600F05CF804F10B00231D20F007006D
:10325000C31AD3D05A42E250D0E74B688C4216BF13
:10326000636013600C46EBE70C464968CCE7C41C6E
:1032700024F00304A04205D0211A304600F02EF8B5
:103280000130CFD02560DBE79400002098000020BB
:10329000F8B5074614460E4621B9BDE8F840114678
:1032A000FFF79CBF22B9FFF74DFF25462846F8BD22
:1032B00000F026F8A0420FD221463846FFF78EFFD5
:1032C00005460028F2D031462246FFF717FF314667
:1032D0003846FFF737FFE9E73546E7E738B500231B
:1032E000054C054608462360FDF740FD431C02D10E
:1032F000236803B12B6038BD280100207047704758
:1033000051F8043C181F002BBCBF0B58C018704765
:10331000F8B500BFF8BC08BC9E467047F8B500BFC2
:08332000F8BC08BC9E46704792
:1033280020766F6C74616765206973202568752045
:103338000D0A000002030405060708090A0B0C0D14
:103348000E0F101001020000020304050607080909
:103358000A0B0C0D0E0F10100102000000000000F7
:10336800000000000102030406070809000000002D
:1033780001020304232D302B2000686C4C00656685
:1033880067454647003031323334353637383941AE
:1033980042434445460030313233343536373839C4
:0833A8006162636465660000C8
:0433B00035010008DB
:0433B40011010008FB
:1033B8000024F400100000000100000010000020AC
:1033C80000000000000000000000000000000000F5
:1033D80000000000000000000000000000000000E5
:1033E80000000000000000000000000000000000D5
:1033F80000000000000000000000000000000000C5
:1034080000000000000000000000000000000000B4
:1034180000000000000000000000000000000000A4
:0400000508000DE5FD
:00000001FF
