:020000040800F2
:1000000000280020650E0008050D00080B0D0008F3
:10001000110D0008170D00081D0D0008000000005C
:10002000000000000000000000000000230D000898
:100030002F0D0008000000003B0D0008470D0008D0
:10004000AD0E0008AD0E0008AD0E0008AD0E0008A4
:10005000AD0E0008AD0E0008AD0E0008AD0E000894
:10006000AD0E0008AD0E0008AD0E0008AD0E000884
:10007000AD0E0008AD0E0008AD0E0008AD0E000874
:10008000AD0E0008AD0E0008AD0E0008AD0E000864
:10009000AD0E0008AD0E0008AD0E0008AD0E000854
:1000A000AD0E0008AD0E0008AD0E0008AD0E000844
:1000B000AD0E0008AD0E000800000000AD0E0008F7
:1000C000AD0E00080000000000000000AD0E0008AA
:1000D00000000000AD0E0008AD0E0008000000009A
:1000E000AD0E0008AD0E0008AD0E000800000000C7
:1000F0000000000000000000000000000000000000
:0C01000000000000000000005FF808F1A3
:1001100010B5054C237833B9044B13B10448AFF341
:1001200000800123237010BDDC01002000000000CE
:100130007C46000808B5034B1BB103490348AFF3E5
:10014000008008BD00000000E00100207C4600089F
:10015000034613F8012B002AFBD1181A0138704707
:1001600081F0004102E000BF83F0004330B54FEA68
:1001700041044FEA430594EA050F08BF90EA020FD5
:100180001FBF54EA000C55EA020C7FEA645C7FEA68
:10019000655C00F0E2804FEA5454D4EB5555B8BF8B
:1001A0006D420CDD2C4480EA020281EA030382EAFC
:1001B000000083EA010180EA020281EA0303362D8E
:1001C00088BF30BD11F0004F4FEA01314FF4801C61
:1001D0004CEA113102D0404261EB410113F0004F73
:1001E0004FEA03334CEA133302D0524263EB43032A
:1001F00094EA050F00F0A780A4F10104D5F1200EC8
:100200000DDB02FA0EFC22FA05F2801841F1000122
:1002100003FA0EF2801843FA05F359410EE0A5F1F6
:1002200020050EF1200E012A03FA0EFC28BF4CF027
:10023000020C43FA05F3C01851EBE37101F00045DD
:1002400007D54FF0000EDCF1000C7EEB00006EEBEA
:100250000101B1F5801F1BD3B1F5001F0CD3490874
:100260005FEA30004FEA3C0C04F101044FEA4452CB
:1002700012F5800F80F09A80BCF1004F08BF5FEA52
:10028000500C50F1000041EB045141EA050130BD32
:100290005FEA4C0C404141EB010111F4801FA4F1D5
:1002A0000104E9D191F0000F04BF01460020B1FA2A
:1002B00081F308BF2033A3F10B03B3F120020CDA62
:1002C0000C3208DD02F1140CC2F10C0201FA0CF040
:1002D00021FA02F10CE002F11402D8BFC2F1200CA5
:1002E00001FA02F120FA0CFCDCBF41EA0C0190405B
:1002F000E41AA2BF01EB0451294330BD6FEA0404A4
:100300001F3C1CDA0C340EDC04F11404C4F120028E
:1003100020FA04F001FA02F340EA030021FA04F3A0
:1003200045EA030130BDC4F10C04C4F1200220FAF7
:1003300002F001FA04F340EA0300294630BD21FA35
:1003400004F0294630BD94F0000F83F4801306BFFB
:1003500081F480110134013D4EE77FEA645C18BFEF
:100360007FEA655C29D094EA050F08BF90EA020F86
:1003700005D054EA000C04BF1946104630BD91EA7E
:10038000030F1EBF0021002030BD5FEA545C05D181
:100390004000494128BF41F0004130BD14F58004C0
:1003A0003CBF01F5801130BD01F0004545F0FE4134
:1003B00041F470014FF0000030BD7FEA645C1ABF69
:1003C000194610467FEA655C1CBF0B46024650EAA0
:1003D000013406BF52EA033591EA030F41F40021CC
:1003E00030BD00BF90F0000F04BF0021704730B552
:1003F0004FF4806404F132044FF000054FF0000127
:1004000050E700BF90F0000F04BF0021704730B5E7
:100410004FF4806404F1320410F0004548BF4042BC
:100420004FF000013EE700BF42004FEAE2014FEA11
:1004300031014FEA02701FBF12F07F4393F07F4FEC
:1004400081F06051704732F07F4208BF704793F0EF
:100450007F4F04BF41F40021704730B54FF4607402
:1004600001F0004521F000411CE700BF50EA010205
:1004700008BF704730B54FF000050AE050EA0102AE
:1004800008BF704730B511F0004502D5404261EB1E
:1004900041014FF4806404F132045FEA915C3FF45F
:1004A000D8AE4FF003025FEADC0C18BF03325FEAFC
:1004B000DC0C18BF033202EBDC02C2F1200300FAAD
:1004C00003FC20FA02F001FA03FE40EA0E0021FAD2
:1004D00002F11444BDE600BF70B54FF0FF0C4CF4C0
:1004E000E06C1CEA11541DBF1CEA135594EA0C0F72
:1004F00095EA0C0F00F0DEF82C4481EA030621EAAD
:100500004C5123EA4C5350EA013518BF52EA0335E7
:1005100041F4801143F4801338D0A0FB02CE4FF099
:100520000005E1FB02E506F00042E0FB03E54FF0C9
:100530000006E1FB03569CF0000F18BF4EF0010EC1
:10054000A4F1FF04B6F5007F64F5407404D25FEABD
:100550004E0E6D4146EB060642EAC62141EA555170
:100560004FEAC52040EA5E504FEACE2EB4F1FD0CB2
:1005700088BFBCF5E06F1ED8BEF1004F08BF5FEA30
:10058000500E50F1000041EB045170BD06F00046E2
:1005900046EA010140EA020081EA0301B4EB5C048F
:1005A000C2BFD4EB0C0541EA045170BD41F4801187
:1005B0004FF0000E013C00F3AB8014F1360FDEBFAC
:1005C000002001F0004170BDC4F10004203C35DA88
:1005D0000C341BDC04F11404C4F1200500FA05F30B
:1005E00020FA04F001FA05F240EA020001F00042AC
:1005F00021F0004110EBD37021FA04F642EB060122
:100600005EEA430E08BF20EAD37070BDC4F10C044B
:10061000C4F1200500FA04F320FA05F001FA04F20F
:1006200040EA020001F0004110EBD37041F10001FB
:100630005EEA430E08BF20EAD37070BDC4F1200506
:1006400000FA05F24EEA020E20FA04F301FA05F26E
:1006500043EA020321FA04F001F0004121FA04F216
:1006600020EA020000EBD3705EEA430E08BF20EAE6
:10067000D37070BD94F0000F0FD101F00046400020
:1006800041EB010111F4801F08BF013CF7D041EAA2
:10069000060195F0000F18BF704703F000465200A6
:1006A00043EB030313F4801F08BF013DF7D043EA77
:1006B0000603704794EA0C0F0CEA135518BF95EA2D
:1006C0000C0F0CD050EA410618BF52EA4306D1D1B4
:1006D00081EA030101F000414FF0000070BD50EAD3
:1006E000410606BF1046194652EA430619D094EA5D
:1006F0000C0F02D150EA013613D195EA0C0F05D147
:1007000052EA03361CBF104619460AD181EA03019A
:1007100001F0004141F0FE4141F470014FF0000052
:1007200070BD41F0FE4141F4780170BD70B54FF0ED
:10073000FF0C4CF4E06C1CEA11541DBF1CEA13556D
:1007400094EA0C0F95EA0C0F00F0A7F8A4EB05044F
:1007500081EA030E52EA03354FEA013100F0888046
:100760004FEA03334FF0805545EA131343EA12630F
:100770004FEA022245EA111545EA10654FEA0026C4
:100780000EF000419D4208BF964244F1FD0404F57D
:10079000407402D25B084FEA3202B61A65EB0305D9
:1007A0005B084FEA32024FF480104FF4002CB6EB96
:1007B000020E75EB030E22BFB61A754640EA0C0016
:1007C0005B084FEA3202B6EB020E75EB030E22BF56
:1007D000B61A754640EA5C005B084FEA3202B6EB97
:1007E000020E75EB030E22BFB61A754640EA9C0056
:1007F0005B084FEA3202B6EB020E75EB030E22BF26
:10080000B61A754640EADC0055EA060E18D04FEAE3
:10081000051545EA16754FEA06164FEAC30343EA83
:1008200052734FEAC2025FEA1C1CC0D111F4801F50
:100830000BD141EA00014FF000004FF0004CB6E749
:1008400011F4801F04BF01430020B4F1FD0C88BFE8
:10085000BCF5E06F3FF6AFAEB5EB030C04BFB6EBF3
:10086000020C5FEA500C50F1000041EB045170BDE6
:100870000EF0004E4EEA113114EB5C04C2BFD4EB13
:100880000C0541EA045170BD41F480114FF0000E97
:10089000013C90E645EA060E8DE60CEA135594EA13
:1008A0000C0F08BF95EA0C0F3FF43BAF94EA0C0F16
:1008B0000AD150EA01347FF434AF95EA0C0F7FF48B
:1008C00025AF104619462CE795EA0C0F06D152EADF
:1008D00003353FF4FDAE1046194622E750EA4106C3
:1008E00018BF52EA43067FF4C5AE50EA41047FF4D4
:1008F0000DAF52EA43057FF4EBAE12E74FF0FF3C39
:1009000006E000BF4FF0010C02E000BF4FF0010C09
:100910004DF804CD4FEA410C7FEA6C5C4FEA430C82
:1009200018BF7FEA6C5C1BD001B050EA410C0CBFD1
:1009300052EA430C91EA030F02BF90EA020F002033
:10094000704710F1000F91EA030F58BF994208BF9A
:1009500090422CBFD8176FEAE37040F00100704757
:100960004FEA410C7FEA6C5C02D150EA013C07D1AE
:100970004FEA430C7FEA6C5CD6D152EA033CD3D0F9
:100980005DF8040B704700BF8446104662468C46F3
:100990001946634600E000BF01B5FFF7B7FF002826
:1009A00048BF10F1000F01BD4DF808EDFFF7F4FF4F
:1009B0000CBF012000205DF808FB00BF4DF808EDDA
:1009C000FFF7EAFF34BF012000205DF808FB00BFFD
:1009D0004DF808EDFFF7E0FF94BF012000205DF81F
:1009E00008FB00BF4DF808EDFFF7CEFF94BF0120D4
:1009F00000205DF808FB00BF4DF808EDFFF7C4FFCD
:100A000034BF012000205DF808FB00BF4FEA410C15
:100A10007FEA6C5C02D150EA013C0AD14FEA430CF8
:100A20007FEA6C5C02D152EA033C02D14FF0000035
:100A300070474FF0010070474FEA410212F5001273
:100A400015D211D56FF47873B3EB625212D94FEA15
:100A5000C12343F0004343EA505311F0004F23FAFF
:100A600002F018BF404270474FF00000704750EA54
:100A7000013005D111F0004008BF6FF00040704711
:100A80004FF00000704700BF80B584B000AFF86041
:100A9000B9607A607B689AB24FF0FF33B968044856
:100AA00001F029F97B6818461037BD4680BD00BFAC
:100AB0000402002090B583B000AF00237B60104B90
:100AC0003B6000F0F5F900F021F800F085F800F047
:100AD00059F87B685A1C7A6019460A4801F0F8FEFA
:100AE0003868FFF7A1FC03460C461A462346064821
:100AF00001F0EEFE4FF4FA7000F03CFAE9E700BFB7
:100B00000000484198460008B046000880B590B003
:100B100000AF07F1180328220021184601F080FADF
:100B20003B1D00221A605A609A60DA601A61022343
:100B3000BB610123BB621023FB6200237B6307F1CF
:100B40001803184600F06EFC0346002B01D000F09D
:100B500059F80F237B600023BB600023FB60002358
:100B60003B6100237B613B1D0021184600F0DAFE4B
:100B70000346002B01D000F045F800BF4037BD46CA
:100B800080BD000080B500AF114B124A1A60104BB7
:100B90004FF4E1325A600E4B00229A600C4B002257
:100BA000DA600B4B00221A61094B0C225A61084B88
:100BB00000229A61064B0022DA61054801F04EF8E6
:100BC0000346002B01D000F01DF800BF80BD00BF20
:100BD000040200200044004080B483B000AF084B02
:100BE0009B69074A43F004039361054B9B6903F03B
:100BF00004037B607B6800BF0C37BD4680BC704738
:100C00000010024080B400AF72B6FEE780B485B039
:100C100000AF154B9B69144A43F001039361124BDB
:100C20009B6903F00103BB60BB680F4BDB690E4A95
:100C300043F08053D3610C4BDB6903F080537B603E
:100C40007B680A4B5B68FB60FB6823F0E063FB603A
:100C5000FB6843F08063FB60044AFB68536000BF9D
:100C60001437BD4680BC70470010024000000140B0
:100C700080B588B000AF786007F1100300221A60D9
:100C80005A609A60DA607B681B681B4A93422FD1D6
:100C90001A4BDB69194A43F40033D361174BDB6904
:100CA00003F40033FB60FB68144B9B69134A43F069
:100CB00004039361114B9B6903F00403BB60BB68A1
:100CC00004233B6102237B610323FB6107F11003D3
:100CD00019460B4800F054FA08233B6100237B615E
:100CE0000023BB6107F110031946054800F048FADC
:100CF00000BF2037BD4680BD0044004000100240C8
:100D00000008014080B400AFFEE780B400AFFEE70A
:100D100080B400AFFEE780B400AFFEE780B400AF60
:100D2000FEE780B400AF00BFBD4680BC704780B412
:100D300000AF00BFBD4680BC704780B400AF00BFAD
:100D4000BD4680BC704780B500AF00F0F7F800BF2B
:100D500080BD80B586B000AFF860B9607A600023CE
:100D60007B610AE0AFF300800146BB685A1CBA60A1
:100D7000CAB21A707B6901337B617A697B689A42D7
:100D8000F0DB7B6818461837BD4680BD80B483B061
:100D900000AF78604FF0FF3318460C37BD4680BC7B
:100DA000704780B483B000AF786039603B684FF41F
:100DB00000525A60002318460C37BD4680BC70476D
:100DC00080B483B000AF7860012318460C37BD466D
:100DD00080BC704780B485B000AFF860B9607A60BD
:100DE000002318461437BD4680BC704780B586B0D6
:100DF00000AF7860144A154BD31A7B617B693B6165
:100E0000134B1B68002B02D1114B124A1A60104B76
:100E10001A687B6813443A699A4207D201F0D6F8FF
:100E200002460C2313604FF0FF3309E0084B1B68A8
:100E3000FB60074B1A687B681344054A1360FB6824
:100E400018461837BD4680BD002800200004000069
:100E5000F80100205002002080B400AF00BFBD4662
:100E600080BC70470C480D490D4A002302E0D4585D
:100E7000C4500433C4188C42F9D30A4A0A4C0023E4
:100E800001E013600432A242FBD3FFF7E5FF01F05B
:100E9000A3F8FFF70FFE704700000020DC010020E0
:100EA000C0490008DC01002050020020FEE70000DD
:100EB00080B500AF084B1B68074A43F0100313606E
:100EC000032000F029F9002000F008F8FFF79EFE4B
:100ED0000023184680BD00BF0020024080B582B0CC
:100EE00000AF7860124B1A68124B1B7819464FF40A
:100EF0007A73B3FBF1F3B2FBF3F3184600F033F966
:100F00000346002B01D001230EE07B680F2B0AD88B
:100F1000002279684FF0FF3000F009F9064A7B683B
:100F20001360002300E0012318460837BD4680BD4A
:100F300000000020080000200400002080B400AF62
:100F4000054B1B781A46054B1B681344034A136074
:100F500000BFBD4680BC704708000020480200204A
:100F600080B400AF024B1B681846BD4680BC70477A
:100F70004802002080B584B000AF7860FFF7F0FF32
:100F8000B8607B68FB60FB68B3F1FF3F05D0094B9D
:100F90001B781A46FB681344FB6000BFFFF7E0FFB5
:100FA0000246BB68D31AFA689A42F7D800BF1037D6
:100FB000BD4680BD0800002080B485B000AF7860D9
:100FC0007B6803F00703FB600C4BDB68BB60BA680F
:100FD0004FF6FF031340BB60FB681A02BB68134364
:100FE00043F0BF6343F40033BB60044ABB68D36083
:100FF00000BF1437BD4680BC704700BF00ED00E065
:1010000080B400AF044BDB681B0A03F007031846EB
:10101000BD4680BC704700BF00ED00E080B483B0E7
:1010200000AF03463960FB7197F90730002B0ADBEC
:101030003B68DAB20C4997F907301201D2B20B447F
:1010400083F800230AE03B68DAB20849FB7903F031
:101050000F03043B1201D2B20B441A7600BF0C37C7
:10106000BD4680BC704700BF00E100E000ED00E03D
:1010700080B489B000AFF860B9607A60FB6803F0B3
:101080000703FB61FB69C3F10703042B28BF04239B
:10109000BB61FB690433062B02D9FB69033B00E00B
:1010A00000237B614FF0FF32BB6902FA03F3DA439E
:1010B000BB681A407B699A404FF0FF317B6901FAA7
:1010C00003F3D9437B680B40134318462437BD46CE
:1010D00080BC704780B582B000AF78607B68013B10
:1010E000B3F1807F01D301230FE00A4A7B68013B03
:1010F00053600F214FF0FF30FFF790FF054B0022A8
:101100009A60044B07221A60002318460837BD4630
:1011100080BD00BF10E000E080B582B000AF786015
:101120007868FFF749FF00BF0837BD4680BD80B52E
:1011300086B000AF0346B9607A60FB7300237B6121
:10114000FFF75EFF78617A68B9687869FFF790FF0A
:10115000024697F90F3011461846FFF75FFF00BFB0
:101160001837BD4680BD80B582B000AF7860786822
:10117000FFF7B0FF034618460837BD4680BD0000A4
:1011800080B48BB000AF7860396000237B620023AD
:101190003B6221E101227B6A02FA03F3FB613B68B7
:1011A0001B68FA691340BB61BA69FB699A4240F057
:1011B00010813B685B68122B34D0122B0DD8022BA8
:1011C0002BD0022B04D8002B31D0012B1CD048E0AF
:1011D000032B43D0112B1BD043E0864A934226D0E9
:1011E000844A934206D8844A934220D0834A934249
:1011F0001DD036E0824A934219D0824A934216D0DB
:10120000814A934213D02CE03B68DB683B6228E0C4
:101210003B68DB6804333B6223E03B68DB680833F0
:101220003B621EE03B68DB680C333B6219E03B68C5
:101230009B68002B02D104233B6212E03B689B6851
:10124000012B05D108233B627B68FA691A6108E02B
:1012500008233B627B68FA695A6102E000233B6223
:1012600000BFBB69FF2B01D87B6801E07B680433BA
:101270007B61BB69FF2B02D87B6A9B0002E07B6A23
:10128000083B9B003B617B691A680F213B6901FAAF
:1012900003F3DB431A40396A3B6901FA03F31A434B
:1012A0007B691A603B685B6803F08053002B00F099
:1012B0009080564B9B69554A43F001039361534B11
:1012C0009B6903F00103BB60BB68514A7B6A9B08C2
:1012D000023352F82330FB607B6A03F003039B0068
:1012E0000F2202FA03F3DB43FA681340FB607B68CA
:1012F000484A93420DD07B68474A934207D07B68A7
:10130000464A934201D1022304E0032302E0012371
:1013100000E000237A6A02F0030292009340FA6828
:101320001343FB603A497B6A9B080233FA6841F831
:1013300023203B685B6803F48033002B06D0384BD6
:101340001A683749BB6913430B6006E0344B1A68CF
:10135000BB69DB43324913400B603B685B6803F4B5
:101360000033002B06D02E4B5A682D49BB6913431E
:101370004B6006E02A4B5A68BB69DB43284913409F
:101380004B603B685B6803F48013002B06D0244B52
:101390009A682349BB6913438B6006E0204B9A6827
:1013A000BB69DB431E4913408B603B685B6803F4F9
:1013B0000013002B06D01A4BDA681949BB69134396
:1013C000CB6006E0164BDA68BB69DB431449134077
:1013D000CB607B6A01337B623B681A687B6A22FAC6
:1013E00003F3002B7FF4D6AE00BF2C37BD4680BC84
:1013F000704700BF00002110000011100000121003
:1014000000003110000032100000221000100240D5
:101410000000014000080140000C014000100140A4
:101420000004014080B586B000AF78607B68002B77
:1014300001D101236CE27B681B6803F00103002BE0
:1014400000F08780924B5B6803F00C03042B0CD0F8
:101450008F4B5B6803F00C03082B12D18C4B5B683D
:1014600003F48033B3F5803F0BD1894B1B6803F441
:101470000033002B6CD07B685B68002B68D10123A4
:1014800046E27B685B68B3F5803F06D1804B1B6802
:101490007F4A43F4803313602EE07B685B68002B47
:1014A0000CD17B4B1B687A4A23F480331360784B52
:1014B0001B68774A23F4802313601DE07B685B6818
:1014C000B3F5A02F0CD1724B1B68714A43F48023F3
:1014D00013606F4B1B686E4A43F4803313600BE05C
:1014E0006B4B1B686A4A23F480331360684B1B689C
:1014F000674A23F4802313607B685B68002B13D05A
:10150000FFF72EFD386108E0FFF72AFD02463B6930
:10151000D31A642B01D90323FAE15D4B1B6803F452
:101520000033002BF0D014E0FFF71AFD386108E01B
:10153000FFF716FD02463B69D31A642B01D903233A
:10154000E6E1534B1B6803F40033002BF0D100E0BD
:1015500000BF7B681B6803F00203002B63D04C4B79
:101560005B6803F00C03002B0BD0494B5B6803F066
:101570000C03082B1CD1464B5B6803F48033002B13
:1015800016D1434B1B6803F00203002B05D07B6888
:101590001B69012B01D00123BAE13D4B1B6823F0ED
:1015A000F8027B685B69DB00394913430B603AE062
:1015B0007B681B69002B20D0364B01221A60FFF795
:1015C000CFFC386108E0FFF7CBFC02463B69D31A39
:1015D000022B01D903239BE12D4B1B6803F002036F
:1015E000002BF0D02A4B1B6823F0F8027B685B6964
:1015F000DB00274913430B6015E0264B00221A60DD
:10160000FFF7AEFC386108E0FFF7AAFC02463B6931
:10161000D31A022B01D903237AE11D4B1B6803F077
:101620000203002BF0D17B681B6803F00803002B3A
:101630003AD07B689B69002B19D0174B01221A60A6
:10164000FFF78EFC386108E0FFF78AFC02463B6931
:10165000D31A022B01D903235AE10D4B5B6A03F025
:101660000203002BF0D0012000F0DAFA1CE00A4B54
:1016700000221A60FFF774FC38610FE0FFF770FC7E
:1016800002463B69D31A022B08D9032340E100BF6D
:101690000010024000004242800442429E4B5B6ABE
:1016A00003F00203002BE9D17B681B6803F00403FD
:1016B000002B00F0A6800023FB75974BDB6903F03D
:1016C0008053002B0DD1944BDB69934A43F0805338
:1016D000D361914BDB6903F08053BB60BB6801238E
:1016E000FB758E4B1B6803F48073002B18D18B4B5A
:1016F0001B688A4A43F480731360FFF731FC38613A
:1017000008E0FFF72DFC02463B69D31A642B01D990
:101710000323FDE0814B1B6803F48073002BF0D0A2
:101720007B68DB68012B06D17B4B1B6A7A4A43F04E
:10173000010313622DE07B68DB68002B0CD1764B34
:101740001B6A754A23F001031362734B1B6A724ACA
:1017500023F0040313621CE07B68DB68052B0CD1CB
:101760006D4B1B6A6C4A43F0040313626A4B1B6A9D
:10177000694A43F0010313620BE0674B1B6A664A38
:1017800023F001031362644B1B6A634A23F00403D2
:1017900013627B68DB68002B15D0FFF7E1FB386133
:1017A0000AE0FFF7DDFB02463B69D31A41F28832BB
:1017B000934201D90323ABE0574B1B6A03F00203AA
:1017C000002BEED014E0FFF7CBFB38610AE0FFF707
:1017D000C7FB02463B69D31A41F28832934201D9D2
:1017E000032395E04C4B1B6A03F00203002BEED160
:1017F000FB7D012B05D1484BDB69474A23F0805321
:10180000D3617B68DB69002B00F08180424B5B6811
:1018100003F00C03082B61D07B68DB69022B46D1F7
:101820003F4B00221A60FFF79BFB386108E0FFF78F
:1018300097FB02463B69D31A022B01D9032367E0C9
:10184000354B1B6803F00073002BF0D17B681B6ADB
:10185000B3F5803F08D1304B5B6823F400327B68DE
:101860009B682D4913434B602B4B5B6823F4741228
:101870007B68196A7B685B6A0B43274913434B609B
:10188000274B01221A60FFF76BFB386108E0FFF776
:1018900067FB02463B69D31A022B01D9032337E0C9
:1018A0001D4B1B6803F00073002BF0D02FE01C4B86
:1018B00000221A60FFF754FB386108E0FFF750FB85
:1018C00002463B69D31A022B01D9032320E0124BB5
:1018D0001B6803F00073002BF0D118E07B68DB6914
:1018E000012B01D1012313E00B4B5B68FB60FB680C
:1018F00003F480327B681B6A9A4206D1FB6803F4CA
:1019000070127B685B6A9A4201D0012300E00023D9
:1019100018461837BD4680BD0010024000700040D8
:101920006000424280B584B000AF786039607B6867
:10193000002B01D10123D0E06A4B1B6803F00703A1
:101940003A689A4210D9674B1B6823F00702654931
:101950003B6813430B60634B1B6803F007033A6853
:101960009A4201D00123B8E07B681B6803F00203B0
:10197000002B20D07B681B6803F00403002B05D0EC
:10198000594B5B68584A43F4E06353607B681B68BB
:1019900003F00803002B05D0534B5B68524A43F415
:1019A00060535360504B5B6823F0F0027B689B6888
:1019B0004D4913434B607B681B6803F00103002B08
:1019C00040D07B685B68012B07D1474B1B6803F451
:1019D0000033002B15D101237FE07B685B68022B6D
:1019E00007D1414B1B6803F00073002B09D1012381
:1019F00073E03D4B1B6803F00203002B01D1012370
:101A00006BE0394B5B6823F003027B685B68364907
:101A100013434B60FFF7A4FAF8600AE0FFF7A0FA5F
:101A20000246FB68D31A41F28832934201D903235C
:101A300053E02D4B5B6803F00C027B685B689B00F6
:101A40009A42EBD1274B1B6803F007033A689A428E
:101A500010D2244B1B6823F0070222493B68134332
:101A60000B60204B1B6803F007033A689A4201D0D1
:101A7000012332E07B681B6803F00403002B08D0CD
:101A8000194B5B6823F4E0627B68DB6816491343FB
:101A90004B607B681B6803F00803002B09D0124BD6
:101AA0005B6823F460527B681B69DB000E491343BB
:101AB0004B6000F021F801460B4B5B681B0903F0FB
:101AC0000F030A4AD35C21FA03F3094A1360094B56
:101AD0001B681846FFF702FA002318461037BD4668
:101AE00080BD00BF0020024000100240DC4600081C
:101AF000000000200400002090B48AB000AF2A4B00
:101B00003C1D0FCB84E80F00284B1B883B80002333
:101B1000FB610023BB6100237B6200237B61002308
:101B20003B62234B5B68FB61FB6903F00C03042BF6
:101B300002D0082B03D02DE01E4B3B622DE0FB6949
:101B40009B0C03F00F0307F12802134413F8243C05
:101B50007B61FB6903F48033002B13D0144B5B686B
:101B60005B0C03F0010307F12802134413F8283C2F
:101B7000BB617B690F4A02FB03F2BB69B2FBF3F363
:101B80007B6204E07B690C4A02FB03F37B627B6AA5
:101B90003B6202E0074B3B6200BF3B6A18462837B6
:101BA000BD4690BC704700BFC8460008D846000834
:101BB0000010024000127A0000093D0080B400AF1E
:101BC000024B1B681846BD4680BC704700000020D1
:101BD00080B500AFFFF7F2FF0146054B5B681B0ABB
:101BE00003F00703034AD35C21FA03F3184680BDD0
:101BF00000100240EC46000880B500AFFFF7DEFFA2
:101C00000146054B5B68DB0A03F00703034AD35C1C
:101C100021FA03F3184680BD00100240EC4600088C
:101C200080B485B000AF78600A4B1B680A4AA2FBFB
:101C300003235B0A7A6802FB03F3FB6000BFFB68C7
:101C40005A1EFA60002BF9D100BF1437BD4680BC84
:101C5000704700BF00000020D34D621080B582B0F5
:101C600000AF78607B68002B01D101233FE07B68E7
:101C700093F83D30DBB2002B06D17B68002283F85D
:101C80003C207868FEF7F4FF7B68242283F83D202F
:101C90007B681B68DA687B681B6822F40052DA6094
:101CA000786800F005F97B681B681A697B681B6817
:101CB00022F490421A617B681B685A697B681B6832
:101CC00022F02A025A617B681B68DA687B681B680D
:101CD00042F40052DA607B6800221A647B6820229A
:101CE00083F83D207B68202283F83E20002318469D
:101CF0000837BD4680BD80B58AB002AFF860B960D4
:101D00003B601346FB8000237B61FB6893F83D300A
:101D1000DBB2202B7CD1BB68002B02D0FB88002BD0
:101D200001D1012375E0FB6893F83C30012B01D110
:101D300002236EE0FB68012283F83C20FB6800224E
:101D40001A64FB68212283F83D20FFF709F97861C6
:101D5000FB68FA889A84FB68FA88DA84FB689B68D7
:101D6000B3F5805F08D1FB681B69002B04D1002309
:101D7000FB61BB68BB6103E0BB68FB610023BB6127
:101D8000FB68002283F83C202AE03B6800937B69D3
:101D900000228021F86800F040F80346002B01D0B3
:101DA000032336E0FB69002B0BD1BB691B881A4665
:101DB000FB681B68C2F308025A60BB690233BB614F
:101DC00007E0FB691A78FB681B685A60FB690133FE
:101DD000FB61FB68DB8C9BB2013B9AB2FB68DA8447
:101DE000FB68DB8C9BB2002BCFD13B6800937B69F7
:101DF00000224021F86800F010F80346002B01D0C3
:101E0000032306E0FB68202283F83D20002300E046
:101E1000022318462037BD4680BD80B584B000AF90
:101E2000F860B9603B601346FB712CE0BB69B3F10D
:101E3000FF3F28D0BB69002B07D0FFF791F802467F
:101E40003B68D31ABA699A421DD2FB681B68DA68EC
:101E5000FB681B6822F4D072DA60FB681B685A6961
:101E6000FB681B6822F001025A61FB68202283F89C
:101E70003D20FB68202283F83E20FB68002283F887
:101E80003C2003230FE0FB681B681A68BB68134003
:101E9000BA689A420CBF01230023DBB21A46FB79D1
:101EA0009A42C3D0002318461037BD4680BD0000BB
:101EB00080B584B000AF78607B681B681B6923F431
:101EC00040517B68DA687B681B680A431A617B684B
:101ED0009A687B681B691A437B685B691343BB6024
:101EE0007B681B68DB6823F4B05323F00C037A682B
:101EF0001268B9680B43D3607B681B685B6923F485
:101F000040717B689A697B681B680A435A617B68E9
:101F10001B682C4A934203D1FFF76EFEF86002E083
:101F2000FFF756FEF860FA6813469B0013449A00C8
:101F30001A447B685B689B00B2FBF3F3224AA2FB66
:101F400003235B091901FA6813469B0013449A00A6
:101F50001A447B685B689B00B2FBF3F21A4BA3FB4D
:101F600002035B09642000FB03F3D31A1B01323325
:101F7000154AA2FB03235B0903F0F0031944FA6836
:101F800013469B0013449A001A447B685B689B00CD
:101F9000B2FBF3F20C4BA3FB02035B09642000FBD2
:101FA00003F3D31A1B013233074AA2FB03235B0955
:101FB00003F00F027B681B680A449A6000BF103769
:101FC000BD4680BD003801401F85EB51014B1868AC
:101FD000704700BF0C00002070B500250C4E0D4C62
:101FE000A41BA410A54209D102F048FB00250A4E0B
:101FF0000A4CA41BA410A54205D170BD56F825308B
:1020000098470135EEE756F8253098470135F2E755
:10201000B8490008B8490008B8490008BC49000898
:1020200003460244934200D1704703F8011BF9E7CD
:10203000002B2DE9F0471E46BBBF03F100431E46AF
:1020400000232D2388B0149FDDE9121A27F0200702
:10205000462F1446109D0B7004D0452F00D101353A
:10206000022300E0032307AA049206AACDE902A2F4
:10207000CDE900352246334600F0D2FC472F80469A
:1020800002D1119BDB0726D5462F08EB050911D19C
:1020900098F80030302B0AD1002200232046314628
:1020A000FEF782FC18B9C5F10105CAF80050DAF84C
:1020B000003099440022002320463146FEF774FC8C
:1020C00038B93022079B4B4505D2591C07911A702D
:1020D000F8E7CDF81C904046079B159AA3EB080340
:1020E000136008B0BDE8F087F7B50029B4BF2D2311
:1020F0002B230446B8BF4942092904F8022B437038
:1021000021DD0DF107031F460A2691FBF6F506FBBC
:102110001511092D01F1300103F8011C03F1FF3203
:10212000294609DC3031023B02F8011CBB42224641
:1021300004D3101A03B0F0BD1346E6E713F8012BE1
:1021400004F8012BF2E7302319448370021DC1709B
:10215000EFE700002DE9F04F91B00C461A9F93462F
:102160001E46054601F0DAFA036818460993FDF7A2
:10217000EFFF00230E933B680A90073323F0070319
:1021800003F1080294F81880D4F800A03A60D3E96B
:102190000023C4E91223D4E9127929F000430B93F8
:1021A0004FF0FF32A64B38460B99FEF72FFC68BB69
:1021B0004FF0FF32A24B38460B99FEF709FC28BBC3
:1021C0000022002338464946FEF7F8FB10B12D23C4
:1021D00084F843309B4F9C4BB8F1470F98BF1F4684
:1021E00003234FF0000923612AF0040323600096C3
:1021F0005B460FAA2146284600F0E2F9013040F084
:1022000090804FF0FF3011B0BDE8F08F3A464B465A
:1022100038464946FEF7FAFB10B18C4F8C4BDBE792
:1022200063684AF48062591C0DA80EA940D10623A8
:1022300063604FF0000C0DF13303CDE901236368B7
:102240002260CDE9030800933A464B46CDE9051CD0
:102250002846FFF7EDFE08F0DF03472B074609D1BC
:102260000D9BD81C02DB6268934247DDA8F102088F
:102270005FFA88F8B8F1650F0D9924D80139424604
:1022800004F150000D91FFF72FFF0E9A81461318AD
:10229000012A236102DC2268D10701D501332361C1
:1022A0009DF83330002BA2D02D2384F843309EE7D5
:1022B000B8F1670F00F06E81B8F1470FB9D1002B6C
:1022C000B7D10123B4E7B8F1660F19D100296368CB
:1022D0000CDD216113B92268D20702D501330B440A
:1022E00023610D9B4FF00009A365D9E713B922685C
:1022F000D00701D50233F3E70123F1E74FF0670878
:10230000DDE90D32934205DB22682361D107E8D570
:102310000133E5E7002BCCBF0123C3F102031344D3
:10232000DEE723685A0507D423693A46594628460A
:10233000B047013029D164E7B8F1650F40F2D7808A
:10234000D4E9120100220023FEF72EFB88B30123FB
:10235000404A59462846B04701303FF452AFDDE9C4
:102360000D239A4202DB2368D8070ED5DDE9092345
:1023700059462846B04701303FF443AF002704F1E7
:102380001A080E9B013BBB4209DC23689F0700F142
:10239000FD80E0680F9B9842B8BF184633E70123E1
:1023A000424659462846B04701303FF42AAF01372C
:1023B000E7E70D9B002B2BDC0123264A59462846D4
:1023C000B04701303FF41DAF0D9B23B90E9B13B9ED
:1023D0002368D907D9D5DDE9092359462846B047EE
:1023E00001303FF40EAF4FF0000804F11A090D9BC5
:1023F0005B42434501DC0E9B97E701234A46594661
:102400002846B04701303FF4FCAE08F10108EEE782
:102410000E9AA36D9A42A8BF1A46002A904607DD7D
:10242000134659463A462846B04701303FF4E9AED4
:1024300004F11A034FF0000A28EAE8780B9315E03C
:10244000FFFFEF7FFC460008F8460008044700083D
:10245000004700080847000801230B9A5946284600
:10246000B04701303FF4CDAE0AF1010AD4F85890DC
:10247000A9EB08035345EFDCDDE90D239A424F44F5
:1024800014DB2368DA0711D40E9B0D99A3EB090224
:10249000A3EB01099145A8BF9146B9F1000F0DDCEE
:1024A000002729EAE97904F11A0818E0DDE909238F
:1024B00059462846B0470130E6D1A2E64B463A4697
:1024C00059462846B0470130EAD19AE601234246F0
:1024D00059462846B04701303FF493AE0137DDE955
:1024E0000D239B1AA3EB0903BB42EFDC4DE70E9AC9
:1024F000012A01DCDB0738D501233A465946284634
:10250000B04701303FF47DAEDDE909235946284646
:10251000B047013007F101073FF473AED4E912016F
:102520000E9B002203F1FF380023FEF73DFAC0B9ED
:1025300043463A4659462846B04701300DD160E639
:102540000123424659462846B04701303FF459AE70
:1025500001370E9B013BBB42F2DC4B4604F15002BB
:10256000E4E6002704F11A08F3E70123E1E7012379
:10257000424659462846B04701303FF442AE013743
:10258000E3680F9A9B1ABB42F1DC02E7002704F1D3
:102590001908F5E7002B3FF494AE4FF0000CCDE99D
:1025A000051C0DF133012260CDE90308CDE90121BD
:1025B00000933A464B462846FFF73AFD07464FE65A
:1025C0002DE9F04791461F468A680B6906469342FB
:1025D000B8BF1346C9F8003091F843200C46DDF827
:1025E000208012B10133C9F800302368990642BF38
:1025F000D9F800300233C9F80030256815F0060517
:1026000007D104F1190AE368D9F800209B1AAB42FC
:1026100029DC94F843302268003318BF0123920666
:102620002ED404F1430239463046C047013021D050
:102630002368E56803F00603042B18BF0025D9F8CA
:1026400000204FF0000908BFAD1AA368226908BF37
:1026500025EAE5759342C4BF9B1AED181A344D451F
:102660001AD1002008E00123524639463046C047BF
:10267000013003D14FF0FF30BDE8F0870135C2E7EC
:102680003020E11881F843005A1C94F84510224488
:10269000023382F84310C4E701232246394630460C
:1026A000C0470130E6D009F10109D8E72DE9F04330
:1026B00001F1430C0C46097E85B06E29174606468B
:1026C00098460C9A00F0B38022D8632936D00AD8F5
:1026D000002900F0B980582900F0838004F14205F8
:1026E00084F8421032E0642901D06929F6D12068CB
:1026F0001368050603F104012AD51B681160002B3D
:1027000003DA2D225B4284F843206F480A2239E025
:10271000732900F09D8008D86F2920D07029DDD161
:10272000236843F02003236003E0752917D078293C
:10273000D4D17823654884F8453055E0136804F116
:102740004205191D1B68116084F8423001238CE09A
:102750001B6810F0400F116018BF1BB2CFE7136861
:102760002568181D1060280601D51B6802E0680660
:10277000FBD51B886F2914BF0A220822524800216A
:1027800084F843106568002DA560C0F2958021682B
:1027900021F004012160002B3DD1002D40F08E80FE
:1027A0006546082A0BD12368DB0708D523696268D0
:1027B0009A42DEBF302305F8013C05F1FF35ACEB52
:1027C00005032361CDF800803B4603AA214630462D
:1027D000FFF7F6FE01304DD14FF0FF3005B0BDE8F8
:1027E000F083394884F84510136821681D1D1B6863
:1027F00015600A060BD5CA0744BF41F020012160CD
:102800001BB9226822F0200222601022B7E74D0691
:1028100048BF9BB2EFE76546B3FBF2F102FB113311
:10282000C35C05F8013D0B460029F5D1B9E71368F3
:102830002568181D6169106028061B6801D519609C
:1028400002E06A06FBD51980002365462361B9E7DB
:102850001368191D11601D6862680021284600F088
:1028600073FF08B1401B606063682361002384F834
:102870004330A7E723692A4639463046C04701302E
:10288000AAD023689B0713D4E068039B9842B8BF83
:102890001846A3E701234A4639463046C04701306F
:1028A0009AD00135E368039A9B1AAB42F2DCEBE75E
:1028B000002504F11909F5E7002BACD1037804F1E8
:1028C000420584F842306CE70A4700081B470008BD
:1028D0000FB40A4B13B51C6824B1A36913B9204681
:1028E00000F092FE05AB049AA1682046019301F026
:1028F000FDFA02B0BDE8104004B070470C000020A3
:102900002DE9F74F03690C698046A342C0F2848029
:10291000013C01F1140700F1140657F8245056F851
:1029200024000135B0FBF5F54FEA840C06EB0C03EF
:1029300007EB0C0901939DB34FF0000A3846B646E9
:10294000D34650F8042B93B205FB03A3120C4FEAB5
:10295000134A05FB02A29BB2ABEB0303DEF800B007
:102960004FEA124A1FFA8BFB5B441FFA82FBDEF828
:1029700000208145CBEB124202EB23429BB243EA9B
:1029800002434FEA224B4EF8043BDAD256F80C30A1
:1029900033B9019B043B9E421A4631D3C8F810401C
:1029A000404601F0FFF8002826DB30464FF0000CCF
:1029B000013557F8041BD0F800E08BB2ACEB0303F1
:1029C0001FFA8EF213440A0CC2EB1E4202EB2342A2
:1029D0009BB243EA0243B9454FEA224C40F8043B1C
:1029E000E7D256F8242006EB84032AB9043B9E4222
:1029F0001A460BD3C8F81040284603B0BDE8F08F44
:102A00001268043B002AC9D1013CC4E71268043BA8
:102A1000002AEFD1013CEAE70020EEE700000000C9
:102A20002DE9F04F16461F46456A95B00446DDF87D
:102A30008480CDE902673DB9102000F07DFE606220
:102A4000C0E901550560C560636A196851B15A68EB
:102A5000012393404A608B60204600F0C2FE0022B2
:102A6000636A1A603B1EAFBF0023012223F00043BC
:102A70000393ACBFC8F80030C8F80020AE4BDDF8B7
:102A80000C8033EA08031BD142F20F73209A1360C3
:102A9000029B23B9C8F31300002800F04585229B50
:102AA00053B9A64B21E0A64B06930833229A136034
:102AB000069815B0BDE8F08FA04B06930333F5E7F9
:102AC000DDE902670022002330463946FDF76CFF3E
:102AD000824660B10123209A1360229B002B00F0F4
:102AE0002085984B229A1360013B0693E0E712ABD6
:102AF000019313AB009332463B46204601F0CAF8DF
:102B0000C8F30A558346002D7DD0B046C7F31303A2
:102B100043F07F5949F44019A5F2FF35CDF840A0A4
:102B20000022894B40464946FDF71EFB7CA3D3E9B2
:102B30000023FDF7D1FC7CA3D3E90023FDF716FBAE
:102B4000064628460F46FDF75DFC79A3D3E900232E
:102B5000FDF7C2FC02460B4630463946FDF706FB40
:102B600006460F46FDF768FF0022824600233046E6
:102B70003946FDF723FF48B15046FDF743FC324686
:102B80003B46FDF711FF08B90AF1FF3ABAF1160FFB
:102B90005AD8DDE902236D4901EBCA01D1E90001F0
:102BA000FDF72AFF002851D000230AF1FF3A0D93C8
:102BB000129B5D1B6B1E079343BF0023C5F10109E8
:102BC00007934FF00009BAF1000F41DB079BCDF8E6
:102BD00030A053440793002308931E9B092B00F257
:102BE0008F80052BC4BF043B1E931E9BC8BF0025CE
:102BF000A3F10203D8BF0125032B00F28D80DFE88B
:102C000003F07B7D2F6FDDE912531D4405F2324046
:102C1000202813DDC0F14000029B08FA00F805F2FD
:102C2000124023FA00F048EA0000FDF7DBFB012325
:102C30008046A1F1F879013D109371E7029BC0F144
:102C4000200003FA00F0F0E70123B0E70D90AFE7B2
:102C5000CAF1000308930023A9EB0A090C93BCE70F
:102C6000012309931F9B002B74DD984604930022D7
:102C7000666A7260042202F11400984271686ED98B
:102C8000204600F07AFD636A30601B68B8F10E0FD1
:102C9000069300F2ED80002D00F0EA80DDE90223CA
:102CA000BAF1000FCDE90E2377DD284A0AF00F03B1
:102CB0004FEA2A1602EBC303F006D3E90023CDE95D
:102CC0000A2368D5DDE90E01214B0325D3E908234A
:102CD000FDF72CFDCDE9020106F00F061C4F4FE079
:102CE000012309931F9B534403F1010804934346B6
:102CF000012BB8BF0123BAE70023B2E70023F0E7B6
:102D00000125002309951E934FF0FF330022049301
:102D1000984612231F92AAE701230993F4E700BF04
:102D200061436F63A787D23FB3C8608B288AC63FD1
:102D3000FB799F501344D33F0000F07F35470008D4
:102D40002C470008094700080000F83FC847000862
:102D5000A04700080123049398461A46DAE7013198
:102D60007160520087E7F10708D5DDE90A01D7E96C
:102D70000023FDF7B1FBCDE90A01013576100837D4
:102D8000002EF0D1DDE90A23DDE90201FDF7CEFCDA
:102D9000CDE902011BE00225A0E700F0A480DDE9F7
:102DA0000E01CAF10006A04B06F00F0203EBC203AE
:102DB000D3E90023FDF790FB02250023CDE90201B2
:102DC0009A4F3611002E40F08380002BE0D10D9BEE
:102DD000002B00F08A80DDE90223CDE90A23DDE93A
:102DE0000A010022924BFDF7E9FD00287DD0B8F1E1
:102DF000000F7AD0049B002B36DDDDE90A010022AA
:102E00008C4BFDF769FBCDE90201049E0AF1FF3707
:102E100001352846FDF7F6FADDE90223FDF75CFBF4
:102E20000022854BFDF7A2F9A1F15075CDE90A0109
:102E30000B95002E5CD1DDE9020100227F4BFDF7EE
:102E400093F90A9A2B46CDE90201FDF7D5FD00283A
:102E500040F08182DDE902010A9A05F10043FDF7A5
:102E6000ADFD002840F07582DDE90E23CDE9022397
:102E7000139B002BC0F24B81BAF10E0F00F3478178
:102E8000694B03EBCA03D3E90023CDE904231F9B5D
:102E9000002B80F2D780B8F1000F00F3D38040F010
:102EA0005782DDE904010022644BFDF715FBDDE9E3
:102EB0000223FDF797FD46464746002840F02D8245
:102EC000069B069A5D1C31230AF1010A137028E261
:102ED000F20705D5D7E90023FDF7FEFA01230135F6
:102EE000761008376EE7022571E75746464690E7A9
:102EF0004D4B03EBC60353E90201099B002B48D05D
:102F000002460B4600204E49FDF710FCDDE90A237E
:102F1000FDF72AF9CDE90A01069DDDE90201FDF779
:102F20008BFD1190FDF76EFA02460B46DDE90201BA
:102F3000FDF71AF9119BCDE90201303305F8013B89
:102F4000DDE90A23FDF73AFD002863D1DDE902231C
:102F500000203749FDF708F9DDE90A23FDF72EFDCA
:102F6000002840F0B580069BEB1A9E427FF77CAFAD
:102F7000DDE90A0100222F4BFDF7AEFA0022CDE970
:102F80000A01DDE902012B4BFDF7A6FACDE90201AA
:102F9000C3E7DDE90A23FDF79FFA069BCDE90A01A5
:102FA0009D191E46DDE90201FDF746FD1190FDF772
:102FB00029FA02460B46DDE90201FDF7D5F8119B1F
:102FC000CDE90201303306F8013BAE424FF000027A
:102FD00024D1DDE90A011A4BFDF7C8F802460B4679
:102FE000DDE90201FDF708FD002871D1DDE90A23C2
:102FF00000201349FDF7B8F802460B46DDE902014F
:10300000FDF7DCFC00283FF42FAF15F8013C6A1EE9
:10301000302B01D0BA464AE01546F6E7054BFDF7DE
:103020005BFACDE90201BDE7C8470008A0470008E8
:103030000000F03F0000244000001C40000014404D
:103040000000E03F069DDDE90267DDE9042330462C
:103050003946FDF76BFBFDF7EFFC8146FDF7D2F932
:10306000DDE90423FDF738FA02460B4630463946BF
:10307000FDF77AF809F1300605F8016B069E024665
:10308000AE1BB0450B4635D1FDF770F8DDE90423E2
:1030900006460F46FDF7B0FCC8B9DDE9042330460B
:1030A0003946FDF781FC10B119F0010F0FD15946D7
:1030B000204600F096FB0023209A2B700AF10103B2
:1030C0001360229B002B3FF4F3AC1D60F0E45746E5
:1030D00015F8012C6B1E392A06D1069A9A4207D19F
:1030E00030231370134601371A7801321A7091E7B2
:1030F0001D46EDE70022994BFDF7EEF90022002373
:1031000006460F46FDF750FC00289ED0CFE7099AEF
:10311000002A00F088801E9A012A6DDC109A002A8D
:1031200066D003F233434D46089E079A01211A44A4
:1031300020469944079200F0F4FB0746002D0BDD72
:10314000079B002B08DDAB42A8BF2B46079AA9EBD3
:103150000309ED1AD31A0793089BEBB1099B002BC7
:1031600065D08EB139463246204600F079FC5A4689
:1031700001460746204600F0DDFB59460A902046EE
:1031800000F02FFB0A9B9B46089B9A1B04D05946D4
:10319000204600F065FC83460121204600F0C1FB7B
:1031A0000C9B0646002B00F0C6811A4601462046BD
:1031B00000F056FC1E9B0646012B3EDC029B002BBA
:1031C00037D1039BC3F31303002B34D1039B23F0AC
:1031D00000431B0D1B052BB1079B09F101090133AE
:1031E0000793012308930C9B002B28D101202EE08C
:1031F000129BC3F1360396E7089B08F1FF36B342F2
:10320000B7BF089B9E1BF21A0C9BBFBF08969B186A
:103210000C930026B8F1000FB9BFA9EB08050023F5
:103220004D46434681E7089E4D46099F86E7089A2A
:10323000ADE70023D6E7029BD4E700230893336968
:1032400006EB8303186900F01EFBC0F12000079B0A
:10325000184410F01F0047D0C0F12003042B3BDDC1
:10326000079BC0F11C008144054403440793B9F156
:10327000000F05DD59464A46204600F03FFC8346D4
:10328000079B002B05DD31461A46204600F036FC30
:1032900006460D9B53B33146584600F083FC002888
:1032A00024DA002359460A22204600F0B1FA099B8D
:1032B0000AF1FF3A8346002B00F04481002339468F
:1032C0000A22204600F0A4FA049B0746002B4DDC9E
:1032D0001E9B022B4ADD11E0C9D0079A1C331A4409
:1032E00099441D441346C1E70346F6E7B8F1000FC1
:1032F00036DC1E9B022B33DDCDF81080049B63B9B6
:1033000031460522204600F083FA0146064658461B
:1033100000F048FC00283FF7D3AD1F9B069D6FEAE5
:10332000030A4FF000093146204600F05AFA002FF8
:103330003FF4BDAEB9F1000F05D0B94503D0494601
:10334000204600F04EFA3946204600F04AFAAEE632
:1033500000263746E1E7BA463746B1E5000024408B
:10336000099BCDF81080002B00F0F380002D05DDC7
:1033700039462A46204600F0C1FB0746089B002B31
:103380004CD07968204600F0F8F905463A6907F113
:103390000C01023292000C3000F0E4F901222946BF
:1033A000204600F0ABFBB9460746069B0793029BFD
:1033B00003F00103089331465846FFF7A1FA494646
:1033C000054600F13008584600F0ECFB3A46029002
:1033D0003146204600F000FCC368024603BB0146AC
:1033E0000990584600F0DEFB0346099A1146204634
:1033F000099300F0F6F9099BA3B91E9A92B9089AAD
:1034000082B9B8F1390F29D0029B002B01DD05F1FB
:103410003108079B5D1C83F8008084E73846C2E7CB
:103420000123E3E7029A002A04DB23D11E9A0ABB98
:10343000089AFAB9002BECDD59460122204600F02B
:103440005DFB3146834600F0ADFB002803DCE0D194
:1034500018F0010FDDD0B8F1390FD8D1079B079ACA
:103460005D1C3923137015F8013C6A1E392B4DD0B1
:10347000013352E0079A002B02F1010506DDB8F195
:10348000390FEBD008F10108079BC4E7069B049AAB
:10349000EB1A934205F8018C21D0594600230A22E9
:1034A000204600F0B5F9B94583464FF000034FF0D0
:1034B0000A024946204605D100F0AAF9814607468E
:1034C000079578E700F0A4F93946814600230A22DF
:1034D000204600F09DF90746F2E74FF000095946F3
:1034E0000122204600F00AFB3146834600F05AFBD9
:1034F0000028B8DC02D118F0010FB4D115F8013C56
:103500006A1E302B7FF40FAF1546F7E7069B9342F8
:1035100005D13123069A0AF1010A137003E7154613
:10352000A1E7174BFFF7E1BA229B002B7FF4BBAA60
:10353000144BFFF7DABA1E9B012B7FF73FAE0C9BB3
:10354000089353E6049B002B03DC1E9B022B3FF7E2
:10355000D5AE069D31465846FFF7D2F9069B00F1DD
:10356000300805F8018B049AEB1A9A42B5DD5946EA
:1035700000230A22204600F04BF98346EAE700BF09
:10358000084700082C470008002310B50446C0E98E
:103590000033836081814366C281C0E90433836163
:1035A000194608225C30FEF73BFD054B246263623E
:1035B000044BA362044BE362044B236310BD00BFC2
:1035C000394100085B41000893410008B7410008F9
:1035D000014900F085B800BF9144000870B5682526
:1035E0004A1E55430E4605F1740100F0FDFB0446EA
:1035F00040B10021C0E900160C30A06005F168025E
:10360000FEF70EFD204670BD836910B5044633BB3E
:10361000C0E912330365124B124A1B68826298425A
:1036200004BF0123836100F01FF86060204600F0B2
:103630001BF8A060204600F017F80022E06004218B
:103640006068FFF7A1FF01220921A068FFF79CFF36
:1036500002221221E068FFF797FF0123A36110BD4A
:10366000F4460008D1350008F8B51B4B07461E6824
:10367000B36913B93046FFF7C7FF4836D6E90134BE
:10368000013B03D5336833B13668F7E7B4F90C5022
:103690006DB16834F4E704213846FFF79FFF3060CE
:1036A0000028F1D10C2304463B602046F8BD0B4BAB
:1036B0006566C4E90055A560C4E90335C4E905554C
:1036C0000822294604F15C00FEF7AAFCC4E90D5566
:1036D000C4E91255E9E700BFF44600080100FFFF06
:1036E0002DE9F84380468946002600F1480414B9C4
:1036F0003046BDE8F883D4E90175013F01D524685F
:10370000F5E7AB89012B07D9B5F90E30013303D0AA
:1037100029464046C84706436835EEE7044B1B6818
:10372000186A044B002808BF1846F030704700BFE5
:103730000C00002070000020024B0146186800F0C9
:1037400053BB00BF0C00002010B5C9B20244904228
:10375000034601D1002303E01C7801308C42F6D1EE
:10376000184610BD10B5431E0A44914200D110BD49
:1037700011F8014B03F8014FF7E770B5456A0446AD
:103780000E463DB91020FFF7D7FF6062C0E9015532
:103790000560C560656AEB6883B1636ADB6853F8EE
:1037A0002600B8B9012101FA06F56A1D92002046EB
:1037B00000F0BFFA60B1C0E901650EE021220421EA
:1037C000204600F0B6FA636AE860DB68002BE4D1BB
:1037D000002070BD026843F826200023C0E90333AF
:1037E000F7E770B5446A06460D463CB91020FFF76E
:1037F000A3FF7062C0E901440460C4603DB1736A14
:103800006A68DB6853F82210296043F8225070BDC3
:103810002DE9F0411F4606460C4600230D6901F1D3
:10382000140CDCF80000013381B202FB0171000CC2
:103830000F0C02FB007089B201EB00419D424FEA80
:1038400010474CF8041BECDCD7B1A368AB4212DC88
:10385000616830460131FFF790FF8046226904F12C
:103860000C01023292000C30FFF77CFF21463046FB
:10387000FFF7B7FF444604EB850301355F6125611F
:103880002046BDE8F081020C12040346B2B90304DD
:10389000102013F07F4F04BF1B02083013F0704F4D
:1038A00004BF1B01043013F0404F04BF9B000230E3
:1038B000002B06DB5B0003D5013070470020E8E7F2
:1038C000202070470368014613F007020BD0DA0787
:1038D00023D4980749BF5B089B0801200B605CBF9D
:1038E0000B600220704798B2A8B910201B0C13F08F
:1038F000FF0F04BF1B0A08301A0704BF1B0904305E
:103900009A0704BF9B080230DA0702D45B0806D08E
:1039100001300B6070471046E9E700207047202017
:10392000704710B50C460121FFF727FF01224461C3
:10393000026110BD2DE9F74F14460A6923698846D4
:103940009A42BEBF0B46A0461C46D8F81070D4F869
:103950001090D8F80830D8F8041007EB0906B342E5
:10396000B8BF0131FFF709FF00F114052B46002213
:1039700005EB860E734516D304F1140208F1140109
:1039800002EB890301EB87070093009B01929342AE
:103990000CD8002E03DD5EF8043D002B5DD00661DF
:1039A00003B0BDE8F08F43F8042BE3E7B2F800B0B2
:1039B000BBF1000F23D08946AC464FF0000859F800
:1039C000044BDCF800A0A3B21FFA8AFA0BFB03A396
:1039D0004FEA144ADCF8004043444FEA14480BFB1A
:1039E0000A84E24604EB13449BB243EA04434F4586
:1039F0004FEA14484AF8043B2BD8CCF80480019BCA
:103A00000432B3F802A0BAF1000F20D08946A846CC
:103A10004FF0000B2B68B9F800C0B8F802409BB219
:103A20000AFB0C44C4465C4443EA04434CF8043BA0
:103A300059F8043BB8F804B01B0C0AFB03B34F451C
:103A400003EB14434FEA134B05D8C8F80430043590
:103A50009BE7D446B3E7E046DDE7013E99E7000087
:103A60002DE9F843154612F0030206460F4607D02B
:103A7000214C013A002354F82220FFF7C9FE0746E3
:103A8000AD1035D0746A3CB91020FFF755FE706256
:103A9000C0E901440460C460D6F82480D8F8084026
:103AA0004CB940F271213046FFF73BFF002304463A
:103AB000C8F8080003604FF00008EB070AD5394644
:103AC00022463046FFF736FF814639463046FFF73B
:103AD00088FE4F466D100BD0206838B9224621462B
:103AE0003046FFF727FF2060C0F800800446E4E777
:103AF0003846BDE8F88300BF904800082DE9F0473C
:103B00000C460746164623694FEA621A0AEB030978
:103B10004968A36809F10105AB4232DB3846FFF77B
:103B20002CFE002380461A4600F1140153452BDB7E
:103B300020692AEAEA7A04F1140316F01F0201EB65
:103B40008A0103EB800C25D00020C2F1200E8A46AA
:103B50001E68964030434AF8040B53F8040B9C450A
:103B600020FA0EF014D8486008B109F10205013DB1
:103B70003846C8F810502146FFF733FE4046BDE8EE
:103B8000F08701315B00C7E741F823200133CDE71F
:103B90005146DCE7043953F8042B9C4541F8042FC7
:103BA000F9D8E4E703690A6930B59B1A0CD1920091
:103BB000143014318418114454F8045D51F8042D64
:103BC000954203D005D30123184630BDA042F3D35C
:103BD000FAE74FF0FF33F7E72DE9F0470D460746C8
:103BE000114628461446FFF7DDFF061E08D1314670
:103BF0003846FFF7C2FD0123C0E90436BDE8F0876F
:103C0000A4BF23462C4638466168A6BF1D46002641
:103C10000126FFF7B2FD4FF0000EC6602B69266942
:103C200004F1140205F1140902EB860709EB83087D
:103C300000F1140152F804AB59F8045B1FFA8AF33F
:103C40007344ACB21B1B2C0CC4EB1A4404EB23448E
:103C50009BB24FEA244EC84543EA0444944641F8D7
:103C6000044BE7D8BC4504D351F8043D83B1066149
:103C7000C4E75CF8044BA2B27244131403EB144380
:103C800092B242EA03424FEA234E41F8042BE9E79D
:103C9000013EE9E72DE9F3411C46DDE90865012114
:103CA0009046FFF76AFDC4F31302C4F30A540746B3
:103CB00034BB0192B8F1000227D002A840F8082DC9
:103CC000FFF700FE0099F0B1019AC0F1200302FA5B
:103CD00003F30B43C2407B610192019B002B14BF95
:103CE00002210121BB613961C4B1A4F2334404440F
:103CF0003460C0F135002860384602B0BDE8F0817C
:103D000042F48012D5E77961E7E701A8FFF7DAFD11
:103D10000121019B39617B612030E5E7A0F232404F
:103D200007EB810330601869FFF7ADFDC0EB411070
:103D3000E1E738B502FB01F4214600F055F80546ED
:103D400018B122460021FEF76BF9284638BD000065
:103D500038B50546002943D051F8043C0C1F002B10
:103D6000B8BFE41800F046FC1E4A1368104633B989
:103D7000636014602846BDE8384000F03CBCA342B4
:103D80000BD921686218934201BF1A685B68521808
:103D9000226063600460EDE713465A680AB1A242EC
:103DA000FAD919685818A0420BD120680144581854
:103DB00082421960DED110685268014419605A606D
:103DC000D8E702D90C232B60D4E7206821188A4257
:103DD00001BF116852680918216062605C60C9E720
:103DE00038BD00BFFC01002070B5CD1C25F00305D7
:103DF00008350C2D38BF0C25002D064601DBA942E5
:103E000003D90C233360002070BD00F0F3FB214A7E
:103E10001468214691B9204C23681BB9304600F044
:103E20007BF920602946304600F076F9431C24D106
:103E30000C233046336000F0DEFBE4E70B685B1BCD
:103E400018D40B2B0FD90B60CC18CD50304600F096
:103E5000D2FB04F10B00231D20F00700C31AD3D0BE
:103E60005A42E250D0E74B688C4216BF6360136041
:103E70000C46EBE70C464968CCE7C41C24F003046D
:103E8000A04205D0211A304600F046F90130CFD0CB
:103E90002560DBE7FC01002000020020936810B4DD
:103EA000013B002B936007DA9469A34201DB0A29E6
:103EB00002D110BC00F084B91368581C106019704E
:103EC000084610BC7047F8B506460F461446D5188C
:103ED000AC4201D1002007E03A4614F8011B3046FD
:103EE000FFF7DCFF431CF3D1F8BD00002DE9F04FD4
:103EF0000C469DB017461D46064618B183690BB99E
:103F0000FFF782FB7C4B9C4258D17468A389180749
:103F10005ED52369002B5BD00023099320238DF805
:103F2000293030234FF0010B8DF82A300395B84625
:103F3000454615F8013B0BB1252B54D1B8EB070AC8
:103F40000BD053463A4621463046FFF7BCFF0130BE
:103F500000F0C280099B5344099398F80030002B6D
:103F600000F0BA8000234FF0FF32CDE9052304931F
:103F700007938DF853301A93A846052218F8011BB1
:103F80005E48FFF7E1FB049B78BBD90644BF2022C3
:103F90008DF853201A0744BF2B228DF853202A781E
:103FA0002A2A2AD0A84600200A25079A414611F855
:103FB000013B303B092B69D960B324E0504B9C4254
:103FC00001D1B468A2E74F4B9C4208BFF4689DE75B
:103FD0002146304600F058F900289DD04FF0FF30C0
:103FE0001DB0BDE8F08FA846A2E7444A4546801AB6
:103FF0000BFA00F018430490BEE7039A111D1268F3
:104000000391002A01DB079204E0524243F00203CD
:104010000792049398F800302E2B0ED198F80130B7
:104020002A2B38D1039B08F102081A1D1B68039242
:10403000002BB8BF4FF0FF330593334D032298F8A0
:1040400000102846FFF780FB40B14023401B03FAD5
:1040500000F0049B08F101080343049398F8001052
:1040600006222A4808F101078DF82810FFF76CFB9B
:10407000002837D0264B1BBB039B073323F00703D5
:1040800008330393099B4B44099350E705FB023225
:10409000012088468AE700230A25194608F101080D
:1040A0000593404610F8012B303A092A03D9002B1A
:1040B000C3D00591C1E705FB012101238046F0E74C
:1040C00003AB00932246134B04A93046FEF742F897
:1040D000B0F1FF3F8146D5D1A3895B063FF57EAFA6
:1040E00009987DE703AB009322460A4B04A93046AA
:1040F000FEF7DCFAECE700BF5C4700089C480008CC
:104100007C4700083C470008A2480008A648000871
:1041100055210008C73E000838B50023054C054668
:1041200008462360FCF762FE431C02D1236803B1FA
:104130002B6038BD4C02002010B50C46B1F90E10B2
:1041400000F05AFA0028ABBF636DA3891B1823F453
:104150008053ACBF6365A38110BD2DE9F0411F46BC
:104160008B890546DB050C46164605D50223002241
:10417000B1F90E1000F0B6F9A389324623F480534A
:10418000A381B4F90E103B462846BDE8F04100F08B
:1041900069B810B50C46B1F90E1000F0A3F9431C34
:1041A000A38915BF606523F4805343F48053A38132
:1041B00018BFA38110BDB1F90E1000F0D3B80000F4
:1041C000F8B50E461446054618B183690BB9FFF7DA
:1041D0001BFA214B9C422AD16C68A369A360A38976
:1041E0001A072ED5236963B323692068F6B2C01A73
:1041F00063693746834204DC2146284600F048F9CB
:1042000028BBA3680130013BA36023685A1C2260CD
:104210001E706369834204D0A389DB0719D50A2E77
:1042200017D12146284600F033F990B10FE00B4B2F
:104230009C4201D1AC68D0E7094B9C4208BFEC68B6
:10424000CBE72146284600F01FF80028CCD04FF0DD
:10425000FF373846F8BD00BF5C4700087C470008C0
:104260003C47000838B50546084611460022054C73
:1042700022601A46FCF708FC431C02D1236803B1F4
:104280002B6038BD4C020020324B70B51D680646CD
:104290000C4625B1AB6913B92846FFF7B5F92E4B8B
:1042A0009C420FD16C68B4F90C309AB215072CD42B
:1042B000D00611D40922326043F04003A3814FF0AD
:1042C000FF303EE0254B9C4201D1AC68EBE7244B2C
:1042D0009C4208BFEC68E6E7510712D5616B41B11B
:1042E00004F14403994202D03046FFF731FD002328
:1042F0006363A38923F02403A381002363602369FC
:104300002360A38943F00803A38123694BB9A389E0
:1043100003F42073B3F5007F03D02146304600F04C
:1043200017F9A28912F001030CD00023A36063697E
:104330005B42A361236953B9B4F90C3013F08000D8
:10434000BAD170BD920758BF6369A360F2E700203D
:10435000F7E700BF0C0000205C4700087C4700081E
:104360003C47000838B50023054C05460846236045
:10437000FCF70CFD431C02D1236803B12B6038BD50
:104380004C0200208A892DE9F041054610070C46B1
:1043900058D44B68002B05DC0B6C002B02DC002092
:1043A000BDE8F081E66A002EF9D0002312F48052B5
:1043B0002F68216A2B6032D0606DA3895A0705D51A
:1043C0006368C01A636B0BB1236CC01A00230246EA
:1043D000E66A216A2846B047431CA38906D12968AA
:1043E0001D2948D8294ACA40D60744D50022626010
:1043F0002269D904226004D5421C01D12B6803B97B
:104400006065616B2F600029C9D004F144039942B3
:1044100002D02846FFF79CFC00206063C0E7012320
:104420002846B047411CC8D12B68002BC5D01D2B96
:1044300001D0162B01D12F60B1E7A38943F04003CF
:10444000A381ADE70F69002FA9D0930718BF002300
:104450000E6808BF4B69A6EB07080F608B60B8F1C8
:10446000000F9CDD43463A46216A2846A66AB047BB
:10447000002806DCA38943F04003A3814FF0FF30FE
:104480008EE70744A8EB0008E9E700BF01004020E1
:1044900038B50B6905460C46DBB118B183690BB919
:1044A000FFF7B2F80C4B9C4209D16C68B4F90C30A0
:1044B0007BB121462846BDE83840FFF763BF074B74
:1044C0009C4201D1AC68F1E7054B9C4208BFEC6807
:1044D000ECE7002038BD00BF5C4700087C470008BF
:1044E0003C47000838B50546084611460022054CF1
:1044F00022601A46FCF76EFC431C02D1236803B10C
:104500002B6038BD4C02002070B50E46B1F90E107C
:1045100096B0002914461D4607DA00232B60B389A4
:104520001A0610D44FF480630EE06A4600F084F857
:104530000028F2DB019A02F47042A2F500535A42BD
:104540005A412A60EEE740230020236016B070BD78
:104550008B8973B59D0706460C4607D504F14703C2
:10456000236023610123636102B070BD01AB6A4621
:10457000FFF7CAFF009905463046FFF735FC48B9FA
:10458000B4F90C309A05EFD423F0030343F002038F
:10459000A381E3E70D4BB362A389206043F080035E
:1045A000A381009B20616361019B5BB1B4F90E1094
:1045B000304600F053F828B1A38923F0030343F0F9
:1045C0000103A381A3891D43A581CDE7D13500084F
:1045D00082B001B901A942B14BB113780B601278D6
:1045E000101C18BF012002B070471046FBE76FF0A7
:1045F0000100F8E77047704738B505460846114690
:104600000022054C22601A46FCF7A3FB431C02D192
:10461000236803B12B6038BD4C02002049B1FF2A4A
:104620008BBF8A230A700360012088BF4FF0FF30E0
:10463000704708467047000038B50023064C054611
:10464000084611462360FCF7ACFB431C02D12368EB
:1046500003B12B6038BD00BF4C02002038B50023E9
:10466000054C054608462360FCF7AAFB431C02D113
:10467000236803B12B6038BD4C020020F8B500BFA1
:10468000F8BC08BC9E467047F8B500BFF8BC08BC33
:044690009E4670478B
:1046980063757272656E74206E756D6265722069DD
:1046A80073202564200D0A00666C6F6174206E7596
:1046B8006D6265722069732025660D0A000000008E
:1046C80002030405060708090A0B0C0D0E0F10104B
:1046D80001020000000000000000000001020304C5
:1046E800060708090000000001020304100000206A
:1046F800494E4600696E66004E414E006E616E007E
:10470800300030313233343536373839414243445A
:1047180045460030313233343536373839616263D3
:1047280064656600496E66696E697479004E614E0B
:104738000000000000000000000000000000000071
:104748000000000000000000000000000000000061
:104758000000000000000000000000000000000051
:104768000000000000000000000000000000000041
:104778000000000000000000000000000000000031
:104788000000000000000000000000000000000021
:1047980000000000000000000080E03779C34143BA
:1047A800176E05B5B5B89346F5F93FE9034F384D8F
:1047B800321D30F94877825A3CBF737FDD4F15753B
:1047C800000000000000F03F00000000000024404E
:1047D80000000000000059400000000000408F4029
:1047E800000000000088C34000000000006AF84094
:1047F8000000000080842E4100000000D0126341B8
:104808000000000084D797410000000065CDCD412D
:10481800000000205FA00242000000E8764837420E
:10482800000000A2941A6D42000040E59C30A242AC
:104838000000901EC4BCD64200003426F56B0C4321
:104848000080E03779C3414300A0D88557347643C8
:1048580000C84E676DC1AB43003D9160E458E14329
:10486800408CB5781DAF154450EFE2D6E41A4B449E
:1048780092D54D06CFF08044F64AE1C7022DB544E3
:10488800B49DD9794378EA44050000001900000076
:104898007D000000232D302B2000686C4C006566DD
:1048A80067454647004300504F534958002E0000C3
:1048B80020202020202020202028282828282020C8
:1048C80020202020202020202020202020202020E0
:1048D8008810101010101010101010101010101058
:1048E8000404040404040404040410101010101038
:1048F8001041414141414101010101010101010111
:104908000101010101010101010101101010101044
:1049180010424242424242020202020202020202E1
:104928000202020202020202020202101010102009
:10493800000000000000000000000000000000006F
:10494800000000000000000000000000000000005F
:10495800000000000000000000000000000000004F
:10496800000000000000000000000000000000003F
:10497800000000000000000000000000000000002F
:10498800000000000000000000000000000000001F
:10499800000000000000000000000000000000000F
:1049A80000000000000000000000000000000000FF
:0449B80035010008BD
:0449BC0011010008DD
:1049C0000024F4001000000001000000100000208E
:1049D000000000005C4700087C4700083C470008D6
:1049E00000000000000000000000000000000000C7
:1049F00000000000000000000000000000000000B7
:104A000000000000000000000000000000000000A6
:104A10000000000000000000000000000000000096
:104A20000000000000000000000000000000000086
:104A30004300000000000000000000000000000033
:104A40000000000000000000000000000000000066
:104A50004300000000000000000000000000000013
:104A60000000000000000000000000000000000046
:104A700043000000000000000000000000000000F3
:104A80000000000000000000000000000000000026
:104A900043000000000000000000000000000000D3
:104AA0000000000000000000000000000000000006
:104AB00043000000000000000000000000000000B3
:104AC00000000000000000000000000000000000E6
:104AD0004300000000000000000000000000000093
:104AE00000000000000000000000000000000000C6
:104AF0004300000000000000000000000000000073
:104B000000000000000000000000000000000000A5
:104B10001D460008D145000800000000B748000805
:104B2000B5480008A1480008A1480008A1480008AD
:104B3000A1480008A1480008A1480008A1480008B1
:104B4000A1480008A1480008FFFFFFFFFFFFFFFF8B
:104B5000FFFFFFFFFFFF00000100415343494900F1
:104B60000000000000000000000000000000000045
:104B700000000000000000000000415343494900CC
:104B80000000000000000000000000000000000025
:0C4B900000000000000000000000000019
:0400000508000E657C
:00000001FF
