:020000040800F2
:1000000070050020DD0100086F1A0008C116000805
:100010006D1A000811040008511D000800000000BE
:10002000000000000000000000000000731A00083B
:100030001304000800000000711A0008751A000877
:10004000F7010008F7010008F7010008F7010008B0
:10005000F7010008F701000815040008F70100087F
:10006000F7010008F7010008F7010008F701000890
:10007000F7010008F7010008F7010008F701000880
:10008000F7010008F7010008F70100080000000070
:10009000000000000000000000000000F701000860
:1000A000F7010008F7010008F7010008F701000850
:1000B000000000000000000000000000F701000840
:1000C000F7010008F7010008F7010008F701000830
:1000D000F7010008F7010008F70100080000000020
:1000E000F7010008F7010008000000000000000010
:1000F000000000000000000000000000F701000800
:1001000000000000000000002D1B0008000000009F
:100110000000000000000000F701000800000000DF
:10012000F7010008F7010008F7010008F7010008CF
:10013000F7010008000000000000000000000000BF
:1001400000000000000000000000000000000000AF
:10015000F7010008F7010008F7010008F70100089F
:10016000000000000000000000000000000000008F
:10017000000000000000000000000000000000007F
:10018000F7010008F701000800000000000000006F
:1001900000000000F701000800000000000000005F
:1001A000000000000000000000000000000000004F
:1001B000000000000000000000000000F70100083F
:1001C000F7010008F7010008DFF80CD000F07AF81A
:1001D00000480047A11E000870050020064880471F
:1001E00006480047FEE7FEE7FEE7FEE7FEE7FEE71C
:1001F000FEE7FEE7FEE7FEE7111B0008C901000865
:100200002DE9F05F0546002092469B46884606464B
:10021000814640241BE0284641464746224600F0DE
:1002200041F853465A46C01A914110D31146184618
:10023000224600F028F82D1A67EB01084F462246A7
:100240000120002100F01FF817EB00094E41201E8D
:10025000A4F10104DFDC484631462A464346BDE8A6
:10026000F09FD2B201E000F8012B491EFBD270478B
:100270000022F6E710B513460A4604461946FFF772
:10028000F0FF204610BD202A04DB203A00FA02F1DC
:10029000002070479140C2F1200320FA03F3194374
:1002A00090407047202A04DB203A21FA02F0002116
:1002B000704721FA02F3D040C2F120029140084376
:1002C00019467047064C074D06E0E06840F0010310
:1002D00094E8070098471034AC42F6D3FFF778FF54
:1002E000FC1F00081C200008464910B54A6822F48B
:1002F00040324A604A6843681A434A6001684A6863
:1003000022F480724A6001684A68036942EA032263
:100310004A6001684A6822F040724A6001684A688F
:1003200083681A434A6001688A6822F400628A601E
:1003300001688A68C3681A438A60816A6FF07062D4
:10034000D14201688A6822F070628A6001688A6816
:100350000CD0836A1A438A6001688A6822F040528E
:100360008A6001688A68C36A1A4301E022F0405239
:100370008A6001688A6822F002028A6001688A68DD
:10038000037E42EA43028A6090F820100029016847
:100390004A680FD042F400624A6001684A6822F459
:1003A00060424A6001684A68174C436A04EB433371
:1003B0001A4301E022F400624A600168CA6A22F42A
:1003C0007002CA620168CA6A838B104C04EB035343
:1003D0001A43CA6201688A6822F400728A6001685E
:1003E0008A6890F8303042EA43228A6001688A685D
:1003F00022F480628A6001688A68406942EA80204B
:10040000886010BD0023014000E0FFFF0000F0FF06
:10041000FEE7704703480188491C0180012000F075
:1004200085B90000020000200448016841F4003151
:100430000160416A41F001014162704700000240E1
:1004400078B50024009490F83C20012A19D00122AC
:1004500080F83C200A6807230568092A13D9EE684A
:100460000A3A02EB420293409E43EE600B788A68A0
:100470000A3B03EB43039A400368DD682A43DA60D2
:1004800010E0022078BD2E6902EB420293409E43A9
:100490002E610B788A6803EB43039A4003681D6959
:1004A0002A431A614A681F23072A13D205686E6B14
:1004B000521E02EB820293409E436E630B790A88C0
:1004C0005B1E92B203EB83039A4003685D6B2A4381
:1004D0005A6327E005680D2A12D22E6BD21F02EB59
:1004E000820293409E432E630B790A88DB1F92B2EF
:1004F00003EB83039A4003681D6B2A431A6311E0E0
:10050000EE6A0D3A02EB820293409E43EE620B7953
:100510000A880D3B92B203EB83039A400368DD6ABD
:100520002A43DA62164B0568144A9D4206D10D68CB
:10053000122D03D1556845F48005556005689D422C
:1005400018D10B68102B01D0112B13D1536843F431
:1005500000035360096810290CD10A490A4A096846
:10056000B1FBF2F101EB8101490000E0491E00916D
:100570000029FBD180F83C40002078BD00230140D9
:10058000002001401000002040420F000068C06CB5
:10059000704770B504004FF0000503D0206C0026B2
:1005A00010B107E0012070BD204600F01DF8666420
:1005B00084F83C60206CC00610D4206C20F4885075
:1005C00040F0020020642046FFF78EFE6664206C37
:1005D00020F0020040F00100206400E0012584F8D2
:1005E0003C60284670BD000010B586B0044614215A
:1005F0006846FFF73DFE1149206888421CD110482B
:100600000021026842F480720260006800F4807089
:1006100005900B481438026842F00102026000683D
:1006200000F001000590012000900320CDE90101B8
:100630006946044800F086F806B010BD002001406D
:10064000443802400000024018B50021009190F8A3
:100650003C20012A07D0012280F83C2002689368E0
:10066000DB0702D011E0022018BD936843F00103BC
:100670009360204A204B1268B2FBF3F202EB420275
:1006800000E0521E0092002AFBD102689368DB074B
:100690002DD0036C40F20164A34343F480730364E0
:1006A00053685B0505D5036C23F4005343F4805372
:1006B0000364036CDB0404D5436C23F0060343643A
:1006C00000E0416480F83C100C496FF02203136095
:1006D00049680068C90602D00949884207D1816883
:1006E00011F0405F03D1816841F0804181600020BA
:1006F00018BD00001000002040420F000023014000
:100700000020014070B5044600F0DAF80546601C90
:1007100002D004480078044400F0D2F8401BA04204
:10072000FAD370BD0400002070470000044910B5E2
:100730000A68024202D00860FFF7F6FF10BD000011
:10074000143C01402DE9F84F00224FF00108032529
:100750004FF00F0E0B6808FA02F42340A3426ED14B
:100760004E68012E05D0022E03D0112E01D0122E7C
:1007700012D186684FEA420C05FA0CF7BE43CF68E7
:1007800007FA0CF7374387604668A6430C79C4F331
:100790000014944034434460C668570005FA07FCCF
:1007A0008C6826EA0C06BC403443C4604C68022CBA
:1007B00001D0122C13D1D40800EB8404A346D4F842
:1007C000209054074FEAD46A0EFA0AF629EA06097D
:1007D0000E6906FA0AF646EA0906CBF820600468B4
:1007E0000E7924EA0C0406F00306BE402643066098
:1007F0004C68E4004CD5294C266846F480462660B7
:10080000246822F0030604F480440094244C344409
:10081000A446D4F808489607370F0EFA07F6B443F3
:10082000204EB04201D100260BE01F4EB04201D154
:10083000012606E01D4EB04202D1022601E027E06B
:100840000726BE402643CCF80868194E34684F6826
:100850009C43FF0300D51C433460154E361D34689D
:100860004F689C43BF0300D51C433460104E0836CC
:1008700034684F689C43FF0200D51C4334600C4E23
:100880000C3634684F689C43BF0200D51C4334606B
:10089000521C102AFFF45EAFBDE8F88F44380240C6
:1008A0000030014000000240000402400008024005
:1008B000003C01400AB1816170470904FBE7000078
:1008C00001488068704700000400002070B50400F3
:1008D00025D094F83D00002520B984F83C502046EE
:1008E00000F04EF9242084F83D002068016821F0D2
:1008F000010101602068016841F400410160206845
:10090000016821F40041016000F0A4FA4D4A6168D9
:10091000914201D84C4900E04C49884201D2012063
:1009200070BD4B492368B0FBF1F15E6826F03F06CD
:100930000E435E606368934206D94FF49673594341
:100940004FF47A73B1FBF3F12368491C1E6A26F059
:100950003F06314319626168914210D84900401E38
:10096000B0FBF1F2521CC2F30B02042A01D20420A4
:1009700022E0B0FBF1F0401CC0F30B001CE0A268C9
:10098000F2B301EBC10303EB0116431EB3FBF6F315
:100990005B1C43F480431B0549D092B301EBC102B9
:1009A00002EB0111401EB0FBF1F0401CC0F30B0044
:1009B00040F4804040F400402168CA694CF6FF735F
:1009C0009A431043C861D4E90710014320680268C4
:1009D00022F0C00211430160D4E903010143206801
:1009E000826848F2FF339A4311438160D4E90501DC
:1009F00008432168CA6822F0FF021043C86001E082
:100A00000EE016E02068016841F0010101602564F4
:100A1000202084F83D00256384F83E50002070BDFE
:100A200001EB4106431EB3FBF6F35B1CB3E7012069
:100A3000C2E701EB4101401EB0FBF1F0401CC0F3E6
:100A40000B00B7E7A086010080841E0000093D006E
:100A500040420F002DE9F84F1F4690468A46044653
:100A6000DDF82890FFF72CFF054694F83D0020287C
:100A70007FD11923012240492046009500F0ACFEA9
:100A8000002876D194F83C00012872D0012084F827
:100A90003C0020680168C90703D1016841F00101E9
:100AA00001602068016821F400610160212084F860
:100AB0003D00102084F83E0000262664C4F82480FF
:100AC0006785608D20852D48E0622B464A46514659
:100AD000204600F00DFE90B92068416980690090C1
:100AE00036E02A464946204600F0F5FE50B1206C1B
:100AF000042804D12068016841F4007101600120DC
:100B0000BDE8F88F606A216800780861606A401C5F
:100B10006062618D491E6185218D491E89B22185E2
:100B200022685369DB435B070BD451B10078106135
:100B3000606A401C6062608D401E6085208D401E92
:100B400020852A464946204600F020FE0028CED1C6
:100B5000208D0028C5D154F83D0B016841F4007187
:100B60000160202004F81E09E67766770020C7E7B9
:100B7000FFE70220C4E70000020010000000FFFFB2
:100B800010B586B0044614216846FFF771FB13497F
:100B90002068884220D11248016841F002010160BA
:100BA0000068694600F002000590C0200090122005
:100BB0000190012002900320039004200490094832
:100BC000FFF7C0FD06481030016841F400110160D4
:100BD000006800F40010059006B010BD00540040FD
:100BE0003038024000040240024881680278114413
:100BF00081607047040000200B4810B5016841F483
:100C000000710160016841F480610160016841F494
:100C100080710160032000F071F8002000F006F8F8
:100C200000F024F8002010BD003C024070B50D4DCE
:100C300004464FF47A712878B1FBF0F00A4909684C
:100C4000B1FBF0F000F0E8FA48B9102C07D200220E
:100C50002146501E00F032F800206C6070BD01206B
:100C600070BD000004000020100000200B4882B07E
:100C7000016841F480410160006800F48040009008
:100C80000648001F016841F080510160006800F0D3
:100C900080500090072002B000F030B84438024085
:100CA000002809DB00F01F0201219140400980006B
:100CB00000F1E020C0F8001170470000F0B40E4BC6
:100CC0001B680C46C3F30223C3F10705042D00D9AA
:100CD0000425191D072901D2002300E0DB1E01268F
:100CE00006FA05F1491E214099409E40761E1640A5
:100CF0003143F0BC01F02DB80CED00E0064900F0E6
:100D0000070208684FF6FF03184040EA0220034A32
:100D100010430860704700000CED00E00000FA0589
:100D20002DE9F0470E46050065D0DFF81481D8F8AC
:100D30000000F7B200F00F00B04207D288F8007050
:100D4000D8F8000000F00F00B04254D128683D4CA4
:100D5000810712D5400703D5206840F4E050206099
:100D60002878000703D5206840F4604020602068A0
:100D7000A96820F0F000084320602878C0072DD033
:100D8000304968680839012812D0022813D0032896
:100D900011D00968890700292DDA216821F00301A3
:100DA00001432160FFF78CFD814641F2883A0EE055
:100DB00009688903EFE709688901ECE7FFF780FD1F
:100DC000A0EB0901514502D90320BDE8F087206856
:100DD000696800F00C00B0EB810FEFD1D8F800107B
:100DE000404601F00F01B14207D90770006800F0DA
:100DF0000F00B04201D00120E7E72878400705D571
:100E00002068E96820F4E050084320602878000753
:100E100006D52068296920F4604040EAC1002060BE
:100E200000F038F82168084AC1F30311515CC8404A
:100E30000649086006480068FFF7F8FE0020C4E78E
:100E4000003C024008380240E21F00081000002069
:100E5000080000200448054900680968044AC1F3F5
:100E60008221515CC84070471000002008380240C1
:100E7000F21F00080448054900680968044AC1F3E4
:100E80004231515CC84070471000002008380240D1
:100E9000F21F0008154810B5006810F00C02144845
:100EA00013D04110042A0FD0082A0ED10F4C241F52
:100EB0002268236802F03F025B0207D52068C0F376
:100EC0008810A0FB010106E0084610BD2168C1F3AF
:100ED0008811A1FB00010023FFF792F92168C1F3FB
:100EE0000141491C4900B0FBF1F010BD0838024037
:100EF0000024F4002DE9F84F05460078DFF800B330
:100F0000C04CC0074AD0DBF800105846C1F381013D
:100F1000012908D00068C0F3810002280AD1201DF1
:100F20000068400206D52068800337D5686800282D
:100F300072D033E06868B0F5803F10D0B0F5A02FD4
:100F4000206810D020F480302060206820F48020B9
:100F500020606868A8B1FFF7B3FC06460DE0206882
:100F600040F48030F4E740F480202060F7E700BFD1
:100F7000FFF7A6FC801B64286FD820688003F7D594
:100F80000CE0FFF79DFC064605E000BFFFF798FC6C
:100F9000801B6428F0D820688003F7D42878DFF815
:100FA000688280074FF0000940D5DBF800105846F2
:100FB00011F00C0F09D00068C0F3810002280BD19A
:100FC0008F48001F0068400206D42068800715D5AE
:100FD000E868012820D111E0E868B8B10120C8F81C
:100FE0000000FFF76DFC064605E000BFFFF768FC58
:100FF000801B0228C0D820688007F7D5206829699F
:1010000020F0F80040EAC10020600FE0C8F800902E
:10101000FFF756FC064606E0EFE000BFFFF750FC86
:10102000801B022819D820688007F7D42878000789
:1010300022D5734E754869696C3679B1012101601A
:10104000FFF73EFC074604E0FFF73AFCC01B02280E
:1010500003D830688007F7D50EE089E0C0F800902B
:10106000FFF72EFC074604E0FFF72AFCC01B02280E
:101070007ED830688007F7D42878400768D5DFF835
:1010800080A100270AF1380ADAF80000C0000BD46A
:10109000DAF8001041F08051CAF80010DAF80000C8
:1010A000012700F080500090594E3068C00510D4E0
:1010B000306840F480703060FFF702FC009005E07B
:1010C000FFF7FEFB0099401A022851D83068C0058E
:1010D000F6D54B4EA868683601280FD00528306831
:1010E00010D020F001003060306820F00400306043
:1010F000A868B8B1FFF7E4FB00900FE0306840F05B
:101100000100F4E740F004003060F7E7FFF7D8FB98
:101110000099411A41F28830814266D830688007D0
:10112000F4D50EE0FFF7CCFB009007E0FFF7C8FB1B
:101130000099411A41F28830814256D830688007C0
:10114000F4D42FB1DAF8001021F08051CAF8001061
:10115000A869D0B3DBF80010C1F3810102294CD09B
:101160000228484607D0C8F86000FFF7A9FB00E056
:101170003BE005463CE04746C8F86000FFF7A0FBAF
:10118000064604E0FFF79CFB801B02282DD8206850
:101190008001F7D4F5E907010843E9681D4A4908C9
:1011A00002EB0141AA6841EA82110843297C40EA26
:1011B0000160297D40EA01711148001F0160012092
:1011C0003866FFF77DFB054605E014E0FFF778FB86
:1011D000401B022809D820688001F7D50BE000BF2A
:1011E000FFF76EFB401B022802D90320BDE8F88FF1
:1011F00020688001F4D40020F8E70120F6E7000021
:10120000083802400038024000004742800E474242
:10121000007000400000FFFF10B5401EB0F1807F5D
:1012200001D3012010BD4FF0E02460610F21601751
:1012300000F08FFD0020A06107202061002010BD7C
:101240007047704770B590F83C20012A23D00124E4
:1012500080F83C40022280F83D2003685A689D686F
:1012600022F070060A6832435A600C4B02689A42B8
:1012700005D00B4B9A4202D00A4B9A4204D14968DE
:1012800025F080031943916080F83D40002180F8EB
:101290003C10084670BD022070BD000000000140F7
:1012A000000C00400040014010B5040003D094F849
:1012B0003D0010B107E0012010BD002084F83C0083
:1012C000204600F00DF8022084F83D00211D206822
:1012D00000F042FC012084F83D00002010BD000019
:1012E00008B500681149884209D11148016841F0E8
:1012F00001010160006800F00100009008BD0D4987
:101300008842FBD10A48001F016841F008010160D2
:101310000068002200F00800009011463220FFF71C
:10132000CDFCBDE808403220FFF7BABC0000014008
:1013300044380240000C00400168CA6842F00102D3
:10134000CA600068816801F00701062903D00168BE
:1013500041F0010101600020704770B5044690F82B
:101360003C00012817D0012584F83C50022084F865
:101370003D002068826822F0770222F47F4282607A
:101380000868502830D00DDC20284DD005DC98B3FB
:1013900010283BD148E0022070BD302844D04028BE
:1013A00034D139E0602828D0702806D0B0F5805FAD
:1013B0002CD0B0F5005F29D10AE0CB68D1E901213A
:1013C000206800F0FBFB2068816841F0770109E0AC
:1013D000CB68D1E90121206800F0F0FB206881682A
:1013E00041F48041816011E0CA684968206800F0DA
:1013F000F7FB5021206807E016E0CA6849682068BA
:1014000000F0FFFB6021206800F0E2FB84F83D5013
:10141000002084F83C0070BDCA684968206800F06C
:10142000DFFB40212068EFE7226801461046EBE72A
:10143000704770B50446006801694FF00005C94364
:10144000890715D4C168C943890711D4E91E016110
:1014500001202077206880698007204602D0FFF7AE
:10146000E7FF04E000F0C2F8204600F0C0F825775E
:1014700020680169C943490717D4C168C9434907AE
:1014800013D46FF004010161022020772068806985
:1014900010F4407F204602D0FFF7CAFF04E000F0BE
:1014A000A5F8204600F0A3F8257720680169C94314
:1014B000090716D4C168C943090712D46FF008019F
:1014C0000161042020772068C0698007204602D08F
:1014D000FFF7AEFF04E000F089F8204600F087F83F
:1014E000257720680169C943C90617D4C168C94373
:1014F000C90613D46FF0100101610820207720681D
:10150000C06910F4407F204602D0FFF791FF04E04D
:1015100000F06CF8204600F06AF825772068016931
:10152000C943C90708D1C168C943C90704D1891E85
:101530000161204600F05CF820680169C943090692
:1015400009D4C168C943090605D46FF0800101615F
:101550002046FFF775FE20680169C943490609D492
:10156000C168C943490605D46FF0400101612046B6
:1015700000F03FF820680169C94389060BD4C168AF
:10158000C943890607D46FF0200101612046BDE8F8
:101590007040FFF756BE70BD10B586B004461421EA
:1015A0006846FEF765FE0E492068884216D10D4850
:1015B0000021026842F001020260006800F00100B0
:1015C00005904FF4807000900220CDE901010120C8
:1015D000CDE9031069460448FFF7B4F806B010BD22
:1015E0000000014030380240000002407047704760
:1015F0007047704770B5040004D094F83900002596
:1016000010B106E0012070BD84F83850204600F08B
:1016100023F8242084F839002068C16821F400519F
:10162000C160204600F000FB2068016921F4904170
:1016300001612068416921F02A0141612068C16887
:1016400041F40051C160E563202084F8390084F83A
:101650003A00002070BD000010B586B00446142189
:101660006846FEF705FE13492068884220D11248DB
:101670000021026842F400320260006800F4003089
:1016800005900D481038026842F0010202600068BF
:1016900000F0010005900C2000900220CDE901012E
:1016A000032003900720049069460448FFF74AF896
:1016B00006B010BD00440040403802400000024027
:1016C000FEE701684A69D24352050FD46FF4806285
:1016D0004A61002140F8301F202242738173026961
:1016E00042F004020261017301207047002070473C
:1016F000F8B50446C06A1E460D461746082807D0AE
:10170000012805D010F5803F02D0206B122804D1AB
:101710002068016841F480710160134600224FF097
:1017200001112046009600F057F840B1206800688B
:10173000C00502D54FF4007020640320F8BD206975
:10174000B0F5804F0ED00620216800EAD51040F099
:10175000F000086133463A460B49204600F070F825
:1017600078B902E005F0FE0000E0E8B22168086107
:10177000054933463A46891F204600F061F80028A3
:10178000DCD00120F8BD00000800010070B516464D
:101790000D4604460DE02046FFF793FF08B10120F7
:1017A00070BD681C05D0FFF78BF8801BA84207D8D6
:1017B00035B120684069C0434007ECD4002070BDBB
:1017C000002044F8300F20216173A073216941F09B
:1017D000200121612073E2E72DE9F0471E46904683
:1017E0000D460446C1F30747DDF8209008E0701C61
:1017F00006D0FFF765F8A0EB0900B0420FD876B12C
:101800002068012F18D0806925EA00000004000C30
:1018100014D000214145EAD00020BDE8F087002027
:1018200044F8300F20216173A073216941F0200139
:10183000216120730120F0E74069E5E70121E9E734
:101840002DE9F0479A4691460E46044600254FF092
:101850002008C1F3074725E020684069C0434005E0
:1018600014D42068016841F40071016021686FF4AC
:1018700080604861256384F83D8084F83E50206C88
:1018800040F00400206484F83C501FE0B9F1FF3FB1
:1018900008D0FFF715F8A0EB0A0149450CD8B9F1BB
:1018A000000F09D02068012F13D0806926EA0000BC
:1018B0000004000C0BD0CFE744F8305F84F80D80B3
:1018C000A573206940F02000206125730120BDE848
:1018D000F0874069EAE770B516460D4604460DE00C
:1018E0002046FFF7EEFE08B1012070BD681C05D050
:1018F000FEF7E6FF801BA84207D835B12068406993
:10190000C0430006ECD4002070BD002044F8300F26
:1019100020216173A073216941F0200121612073AE
:10192000E2E700007FB5002410480094019402947F
:101930000D490394C0E9001484600461047680F8C2
:1019400020400B49C0E90A140125C561C46080F834
:1019500030404561FEF71DFECDE90045694603486C
:101960000294FEF76DFD7FBD0020014014000020B1
:101970000100000F70B586B014216846FEF778FCB0
:1019800021480024016841F004010160016801F070
:1019900004010591016841F080010160016801F0D6
:1019A00080010591016841F001010160016801F0C9
:1019B00001010591016841F0020101600068134EC8
:1019C00000F002000590002220213046FEF772FF51
:1019D00001250F480095CDE9010469460D48FEF741
:1019E000B1FE20200090CDE90154694630460394B1
:1019F000FEF7A8FE002211460620FFF75FF9062039
:101A0000FFF74EF906B070BD3038024000000240CA
:101A1000000011100008024010B586B000241248E2
:101A2000009401940294039404940E490594016077
:101A300041F28731C0E9011442F20F71C0E9031489
:101A40008461FFF731FC4FF48050009069460648EE
:101A5000FFF783FC049404A903480594FFF7F2FB05
:101A600006B010BD000C0040F0000020FEE77047FB
:101A700070477047FFF7B8B830B593B03421684667
:101A8000FEF7F6FB14210DA8FEF7F2FB1E48002519
:101A9000016841F080510160006800F080501290B0
:101AA0001A48016841F4404101600068022400F4D2
:101AB000404012900120039010200490009406945E
:101AC0000820CDE907503220CDE909040420CDE9F2
:101AD0000B046846FFF70EFA0DA90F2081E83100CC
:101AE000109501210DA81195FFF71AF90648001D60
:101AF000016841F00101016003481038016841F0BC
:101B00000101016013B030BD403802400070004058
:101B10000548016841F47001016003494FF000601D
:101B2000803908607047000088ED00E00748142203
:101B30000188C1EB01118900B1FBF2F1044A118067
:101B4000002101800348FFF774BC00000200002060
:101B500000000020F000002030B50268134B144C48
:101B6000984201D0A04203D122F070054A682A436E
:101B7000984207D0A04205D00E4CA04202D00E4C95
:101B8000A04203D122F44074CA6822434C6922F077
:101B90008002224302608A68C2620A6882629842B6
:101BA00001D1096901630121416130BD000001409B
:101BB000000C0040004001400048014010B584681E
:101BC00042EA032224F47F440A432243826010BD88
:101BD000826822F070020A4342F007018160704778
:101BE00010B5036A046A24F001040462846924F0D5
:101BF000F00444EA021423F00A020A4384610262F8
:101C000010BD10B5036A23F0100303628369046AF0
:101C100023F4704343EA023224F0A00343EA0111A3
:101C20008261016210BD00002DE9F04104460068A8
:101C30000169E26821F44051114301612169A06802
:101C4000E26908436169114308432168CA6849F29F
:101C50000C639A430243CA6020684169A26921F477
:101C6000407111434161E069192764253226B0F5BE
:101C7000004F354A354920684FF0000806D08842A9
:101C800001D0904236D1FFF7F5F835E0884201D017
:101C9000904202D1FFF7EEF801E0FFF7DBF8616850
:101CA0004A18A0FB070148EB0803FEF7A9FA014612
:101CB000B0FBF5F00201B1FBF5F06FF018035843EB
:101CC00001EB800006EBC000B0FBF5F000F0F8007F
:101CD00002EB4002B1FBF5F0584301EB800006EB4C
:101CE000C000B0FBF5F000F00700216810448860E8
:101CF000BDE8F081FFF7AEF861688B0F8A00A0FBAA
:101D00000701FEF77DFA0146B0FBF5F06FF018020F
:101D1000504301EB800006EB0010B0FBF5F000F043
:101D2000F002B1FBF5F002EB0012B1FBF5F06FF041
:101D30001803584301EB800006EB0010B0FBF5F0F0
:101D400000F00F00D1E70000001401400010014036
:101D5000FEE70907090E002804DB00F1E02080F807
:101D60000014704700F00F0000F1E02080F8141D0F
:101D7000704702E008C8121F08C1002AFAD1704754
:101D80007047002001E001C1121F002AFBD17047FB
:101D900010B5802000F044F80024202000F060F806
:101DA000641C462CF9DB10BD10B53220FEF7AAFCEE
:101DB000302000F035F80520FEF7A4FC302000F0BC
:101DC0002FF80120FEF79EFC302000F029F80A20B1
:101DD000FEF798FC202000F023F80A20FEF792FC82
:101DE000282000F01DF80120FEF78CFC082000F0F0
:101DF00017F80120FEF786FC012000F011F8012001
:101E0000FEF780FC0120FEF77DFC062000F008F8BC
:101E10000120FEF777FCBDE810400C20AFF30080F6
:101E20001CB500F0F00141F00C028DF8042041F0E7
:101E3000080100018DF8051040F00C018DF8061026
:101E400040F008008DF8070064200090042301AAE8
:101E50004E210248FEF7FEFD1CBD00005C00002084
:101E60001CB500F0F00141F00D028DF8042041F0A6
:101E7000090100018DF8051040F00D018DF80610E4
:101E800040F009008DF8070064200090042301AAA7
:101E90004E210248FEF7DEFD1CBD00005C00002064
:101EA00008B5FEF7A9FEFFF7E7FDFFF763FDFFF7B3
:101EB00039FD414C40F2E730A062E06200256562E6
:101EC0006563A06940F06000A061A06940F008006F
:101ED000A061206A40F033002062606C40F404404E
:101EE0006064606940F0010060613448FFF754FBB2
:101EF00032483349803001604FF4E131C0E90115C7
:101F00000C21C560C0E904518561C561FFF772FB12
:101F1000FFF782FD29482B49543801602A49C0E95E
:101F200001154FF48041C0E9035145618561C561E8
:101F30000562FEF7CBFCFEF777FA206840F001005F
:101F400020606420FEF7DEFB40F2CA30606364204C
:101F5000FEF7D8FB40F2AA3565634FF4FA60FEF74E
:101F6000D1FB40F2B630606340F6B830FEF7CAFBF2
:101F7000FFF70EFF4FF47A70FEF7C4FBFFF714FF74
:101F80000E484030FFF7D8F94FF466764FF47A6781
:101F90000A489C38FEF758FB6420FEF7B3FB07485D
:101FA0009C38FEF7F3FA80B22B463A463C21009665
:101FB00000F00CF86063EBE700000140B000002087
:101FC0000044004000540040A086010010B5401AB3
:101FD000029CE41A6043511A90FBF1F0184480B25D
:101FE00010BD00000000000000000102030406070D
:101FF0000809000000000102030400001C20000882
:102000000000002014000000721D000830200008AD
:10201000140000205C050000821D00080000000084
:102020000100000010000000000000000024F40087
:04000005080001C925
:00000001FF
