:020000040800F2
:10000000002800201D070008AD060008B306000800
:10001000B9060008BF060008C50600080000000079
:10002000000000000000000000000000CB060008F7
:10003000D706000800000000E3060008EF060008ED
:1000400065070008650700086507000865070008E0
:1000500065070008650700086507000865070008D0
:10006000650700086507000865070008FD06000829
:1000700065070008650700086507000865070008B0
:1000800065070008650700086507000865070008A0
:100090006507000865070008650700086507000890
:1000A0006507000865070008650700086507000880
:1000B00065070008650700080000000065070008E4
:1000C0006507000800000000000000006507000848
:1000D0000000000065070008650700080000000038
:1000E00065070008650700086507000800000000B4
:1000F0000000000000000000000000000000000000
:0C01000000000000000000005FF808F1A3
:10010C0010B5054C237833B9044B13B10448AFF345
:10011C0000800123237010BD0C00002000000000A3
:10012C009829000808B5034B1BB103490348AFF3EA
:10013C00008008BD00000000100000209829000875
:10014C0080B500AF00F00AFB00F016F800F078F96B
:10015C0000F058F900F068F800F0B4F800210448F9
:10016C0001F092FE034B4FF4FA725A63FAE700BFA8
:10017C009C000020002C014080B594B000AF07F12A
:10018C00280328220021184602F0F8FB07F114037B
:10019C0000221A605A609A60DA601A613B1D0022D4
:1001AC001A605A609A60DA600223BB620123BB6357
:1001BC001023FB6302237B640023BB644FF4001306
:1001CC00FB6407F12803184601F014F90346002BD1
:1001DC0001D000F075F90F237B610223BB61002372
:1001EC00FB614FF480633B6200237B6207F11403D5
:1001FC000121184601F07EFB0346002B01D000F0D4
:10020C005FF902237B604FF48043FB603B1D184673
:10021C0001F0DCFC0346002B01D000F051F900BFCB
:10022C005037BD4680BD000080B584B000AF3B1D8B
:10023C0000221A605A609A60204B214A1A601F4BA8
:10024C004FF480729A601D4B01221A731B4B0022D3
:10025C001A751A4B4FF46022DA61184B00225A605F
:10026C00164B02221A61154800F0DAFA0346002BED
:10027C0001D000F025F900237B600123BB6007232C
:10028C00FB603B1D19460D4800F0A2FB0346002BFA
:10029C0001D000F015F901237B600223BB603B1DEC
:1002AC001946064800F094FB0346002B01D000F0E1
:1002BC0007F900BF1037BD4680BD00BF28000020E5
:1002CC000024014080B596B000AF07F1480300222E
:1002DC001A605A609A60DA6007F1400300221A60D3
:1002EC005A6007F1240300221A605A609A60DA609F
:1002FC001A615A619A613B1D20220021184602F0B6
:10030C003DFB3E4B3E4A1A603C4B01225A603B4B34
:10031C0000229A60394B40F2E732DA60374B002208
:10032C001A61364B00225A61344B80229A61334851
:10033C0001F002FD0346002B01D000F0C1F84FF490
:10034C008053BB6407F1480319462C4801F0F6FEB4
:10035C000346002B01D000F0B3F8284801F03BFD18
:10036C000346002B01D000F0ABF800233B640023C4
:10037C007B6407F140031946204802F031FA03462A
:10038C00002B01D000F09CF860237B620023BB6241
:10039C000023FB6200233B6300237B630023BB63CE
:1003AC000023FB6307F1240300221946134801F0D4
:1003BC0007FE0346002B01D000F082F800237B607F
:1003CC000023BB600023FB6000233B6100237B61A7
:1003DC004FF40053BB6100233B623B1D1946074899
:1003EC0002F056FA0346002B01D000F069F80348DE
:1003FC0000F022F900BF5837BD4680BD9C0000209C
:10040C00002C014080B582B000AF0C4B5B690B4AED
:10041C0043F001035361094B5B6903F001037B60FB
:10042C007B68002200210B2000F0E3FC0B2000F085
:10043C00FCFC00BF0837BD4680BD00BF0010024069
:10044C0080B586B000AF07F1080300221A605A602D
:10045C009A60DA60184B9B69174A43F0200393614A
:10046C00154B9B6903F020037B607B68124B9B69E7
:10047C00114A43F0040393610F4B9B6903F004038F
:10048C003B603B6800224FF400610C4800F09AFF7F
:10049C004FF40063BB600123FB6000233B6102232C
:1004AC007B6107F108031946044800F039FE00BFD0
:1004BC001837BD4680BD00BF001002400008014047
:1004CC0080B400AF72B6FEE780B485B000AF154BB8
:1004DC009B69144A43F001039361124B9B6903F02F
:1004EC000103BB60BB680F4BDB690E4A43F08053C2
:1004FC00D3610C4BDB6903F080537B607B680A4B48
:10050C005B68FB60FB6823F0E063FB60FB6843F017
:10051C008063FB60044AFB68536000BF1437BD4620
:10052C0080BC7047001002400000014080B588B0CC
:10053C0000AF786007F1100300221A605A609A60CD
:10054C00DA607B681B68284A934249D1274B9B6928
:10055C00264A43F400739361244B9B6903F40073A4
:10056C00FB60FB68214B9B69204A43F004039361B9
:10057C001E4B9B6903F00403BB60BB6803233B6108
:10058C0003237B6107F110031946194800F0C8FDDD
:10059C00184B194A1A60174B00225A60154B00224F
:1005AC009A60144B8022DA60124B4FF400721A617D
:1005BC00104B4FF400625A610E4B00229A610D4BA6
:1005CC000022DA610B4800F04BFC0346002B01D0F3
:1005DC00FFF776FF7B68074A1A62064A7B6853620C
:1005EC0000BF2037BD4680BD0024014000100240F2
:1005FC0000080140580000200800024080B485B07B
:10060C0000AF78607B681B68094A93420BD1094B99
:10061C009B69084A43F400639361064B9B6903F49E
:10062C000063FB60FB6800BF1437BD4680BC70479D
:10063C00002C01400010024080B588B000AF7860FB
:10064C0007F1100300221A605A609A60DA607B6826
:10065C001B68104A934218D10F4B9B690E4A43F00A
:10066C00040393610C4B9B6903F00403FB60FB6870
:10067C004FF480733B6102237B610223FB6107F122
:10068C0010031946054800F04BFD00BF2037BD464E
:10069C0080BD00BF002C014000100240000801404A
:1006AC0080B400AFFEE780B400AFFEE780B400AFCB
:1006BC00FEE780B400AFFEE780B400AFFEE780B485
:1006CC0000AF00BFBD4680BC704780B400AF00BF18
:1006DC00BD4680BC704780B400AF00BFBD4680BC37
:1006EC00704780B500AF00F07FF800BF80BD000000
:1006FC0080B500AF024800F00DFC00BF80BD00BF0C
:10070C005800002080B400AF00BFBD4680BC7047CD
:10071C000C480D490D4A002302E0D458C450043350
:10072C00C4188C42F9D30A4A0A4C002301E0136026
:10073C000432A242FBD3FFF7E5FF02F0FBF8FFF710
:10074C00FFFC7047000000200C000020DC29000892
:10075C000C000020E8000020FEE7000080B500AF90
:10076C00084B1B68074A43F010031360032000F08A
:10077C0035FB002000F008F8FFF7A6FE0023184612
:10078C0080BD00BF0020024080B582B000AF786011
:10079C00124B1A68124B1B7819464FF47A73B3FB41
:1007AC00F1F3B2FBF3F3184600F04DFB0346002BBC
:1007BC0001D001230EE07B680F2B0AD80022796848
:1007CC004FF0FF3000F015FB064A7B6813600023E6
:1007DC0000E0012318460837BD4680BD000000200C
:1007EC00080000200400002080B400AF054B1B78EB
:1007FC001A46054B1B681344034A136000BFBD46E1
:10080C0080BC704708000020E400002080B400AFDA
:10081C00024B1B681846BD4680BC7047E4000020A4
:10082C0080B586B000AF78600023FB7500233B6178
:10083C000023BB600023FB607B68002B01D10123EC
:10084C00BEE07B689B68002B7B689B6A002B09D100
:10085C007B680022DA627B68002283F824207868A7
:10086C00FFF764FE786800F0ABF90346FB757B6814
:10087C009B6A03F01003002B40F09980FB7D002B4A
:10088C0040F095807B689B6A23F4885323F0020325
:10089C0043F002027B689A627B685A687B68DB696A
:1008AC001A437B681B7B5B001343BA681343BB6022
:1008BC007B689B68B3F5807F03D07B689B68012BBA
:1008CC0002D14FF4807300E000233A6913433B617B
:1008DC007B681B7D012B19D17B681B7B002B09D1FD
:1008EC007B689B69013B5A033B69134343F40063E8
:1008FC003B610BE07B689B6A43F020027B689A6249
:10090C007B68DB6A43F001027B68DA627B681B68F8
:10091C005B6823F469417B681B683A690A435A6037
:10092C007B681B689A68284B13407A681268B96810
:10093C000B4393607B689B68B3F5807F03D07B6827
:10094C009B68012B04D17B681B69013B1B05FB6079
:10095C007B681B68DB6A23F470017B681B68FA6890
:10096C000A43DA627B681B689A68184B1340BA68B2
:10097C009A420BD17B680022DA627B689B6A23F077
:10098C00030343F001027B689A6218E07B689B6A60
:10099C0023F0120343F010027B689A627B68DB6AD7
:1009AC0043F001027B68DA620123FB7507E07B6888
:1009BC009B6A43F010027B689A620123FB75FB7DF6
:1009CC0018461837BD4680BDFDF7E1FFFE0E1FFF30
:1009DC0080B485B000AF786039600023FB730023CE
:1009EC00BB607B6893F82430012B01D10223DCE03F
:1009FC007B68012283F824203B685B68062B1CD89B
:100A0C007B681B68596B3B685A6813469B00134400
:100A1C00053B1F2202FA03F3DB4319403B681868BD
:100A2C003B685A6813469B001344053B00FA03F2DB
:100A3C007B681B680A435A633CE03B685B680C2B81
:100A4C001CD87B681B68196B3B685A6813469B0063
:100A5C001344233B1F2202FA03F3DB4319403B6888
:100A6C0018683B685A6813469B001344233B00FAF2
:100A7C0003F27B681B680A431A631BE07B681B68E4
:100A8C00D96A3B685A6813469B001344413B1F22AA
:100A9C0002FA03F3DB4319403B6818683B685A6859
:100AAC0013469B001344413B00FA03F27B681B681E
:100ABC000A43DA623B681B68092B1CD97B681B68EC
:100ACC00D9683B681A6813465B0013441E3B072227
:100ADC0002FA03F3DB4319403B6898683B681A68D9
:100AEC0013465B0013441E3B00FA03F27B681B6841
:100AFC000A43DA6019E07B681B6819693B681A685D
:100B0C0013465B001344072202FA03F3DB4319403C
:100B1C003B6898683B681A6813465B00134400FAFC
:100B2C0003F27B681B680A431A613B681B68102B35
:100B3C0003D03B681B68112B32D17B681B681D4AA4
:100B4C00934225D17B681B689B6803F40003002B40
:100B5C0026D17B681B689A687B681B6842F400028C
:100B6C009A603B681B68102B1AD1134B1B68134AF5
:100B7C00A2FB03239A0C13469B0013445B00BB603F
:100B8C0002E0BB68013BBB60BB68002BF9D107E0FE
:100B9C007B689B6A43F020027B689A620123FB739B
:100BAC007B68002283F82420FB7B18461437BD4653
:100BBC0080BC7047002401400000002083DE1B43F2
:100BCC0080B584B000AF78600023FB607B681B6845
:100BDC009B6803F00103012B2ED17B681B689A687C
:100BEC007B681B6822F001029A60FFF70FFEF86029
:100BFC001BE0FFF70BFE0246FB68D31A022B14D93D
:100C0C007B681B689B6803F00103012B0DD17B688B
:100C1C009B6A43F010027B689A627B68DB6A43F044
:100C2C0001027B68DA62012307E07B681B689B6822
:100C3C0003F00103012BDCD0002318461037BD460E
:100C4C0080BD000080B485B000AF78607B6803F095
:100C5C000703FB600C4BDB68BB60BA684FF6FF0305
:100C6C001340BB60FB681A02BB68134343F0BF63BD
:100C7C0043F40033BB60044ABB68D36000BF143735
:100C8C00BD4680BC704700BF00ED00E080B400AFF3
:100C9C00044BDB681B0A03F007031846BD4680BCF7
:100CAC00704700BF00ED00E080B483B000AF034696
:100CBC00FB7197F90730002B0BDBFB7903F01F025C
:100CCC00064997F907305B09012000FA02F241F856
:100CDC00232000BF0C37BD4680BC704700E100E00C
:100CEC0080B483B000AF03463960FB7197F90730CD
:100CFC00002B0ADB3B68DAB20C4997F9073012017A
:100D0C00D2B20B4483F800230AE03B68DAB20849FC
:100D1C00FB7903F00F03043B1201D2B20B441A7699
:100D2C0000BF0C37BD4680BC704700BF00E100E03F
:100D3C0000ED00E080B489B000AFF860B9607A6073
:100D4C00FB6803F00703FB61FB69C3F10703042B8A
:100D5C0028BF0423BB61FB690433062B02D9FB6952
:100D6C00033B00E000237B614FF0FF32BB6902FACA
:100D7C0003F3DA43BB681A407B699A404FF0FF31AA
:100D8C007B6901FA03F3D9437B680B401343184684
:100D9C002437BD4680BC704780B582B000AF786008
:100DAC007B68013BB3F1807F01D301230FE00A4A3A
:100DBC007B68013B53600F214FF0FF30FFF790FF32
:100DCC00054B00229A60044B07221A600023184638
:100DDC000837BD4680BD00BF10E000E080B582B092
:100DEC0000AF78607868FFF72DFF00BF0837BD466D
:100DFC0080BD80B586B000AF0346B9607A60FB73E6
:100E0C0000237B61FFF742FF78617A68B9687869E3
:100E1C00FFF790FF024697F90F3011461846FFF77F
:100E2C005FFF00BF1837BD4680BD80B582B000AFF4
:100E3C000346FB7197F907301846FFF735FF00BFE3
:100E4C000837BD4680BD80B582B000AF7860786849
:100E5C00FFF7A2FF034618460837BD4680BD0000C9
:100E6C0080B485B000AF78600023FB607B68002BFA
:100E7C0001D1012343E07B681B681A46224B1344C3
:100E8C00224AA2FB03231B099A007B681A647B6825
:100E9C001F4ADA637B68022283F821207B681B6877
:100EAC001B68FB60FB6823F47F5323F03003FB606B
:100EBC007B685A687B689B681A437B68DB681A43BB
:100ECC007B681B691A437B685B691A437B689B6967
:100EDC001A437B68DB691343FA681343FB607B6836
:100EEC001B68FA681A607B6800229A637B6801228F
:100EFC0083F821207B68002283F8202000231846E9
:100F0C001437BD4680BC7047F8FFFDBFCDCCCCCCB0
:100F1C000000024080B584B000AF78607B68DB6B6A
:100F2C001B68FB607B681B681B68BB607B681B6C69
:100F3C0004229A40FB681340002B4FD0BB6803F08F
:100F4C000403002B4AD07B681B681B6803F020034A
:100F5C00002B07D17B681B681A687B681B6822F022
:100F6C0004021A607B681B68664A934229D07B682E
:100F7C001B68654A934222D07B681B68634A934284
:100F8C001AD07B681B68624A934212D07B681B683C
:100F9C00604A93420AD07B681B685F4A934202D135
:100FAC004FF480030EE04FF080630BE04FF480238E
:100FBC0008E04FF4804305E04FF4806302E04023E7
:100FCC0000E00423554A53607B68DB6A002B00F079
:100FDC0094807B68DB6A786898478EE07B681B6C32
:100FEC0002229A40FB681340002B56D0BB6803F0DA
:100FFC000203002B51D07B681B681B6803F0200395
:10100C00002B0BD17B681B681A687B681B6822F06D
:10101C000A021A607B68012283F821207B681B6816
:10102C00384A934229D07B681B68374A934222D0B6
:10103C007B681B68354A93421AD07B681B68344A1C
:10104C00934212D07B681B68324A93420AD07B6869
:10105C001B68314A934202D14FF400130EE04FF05B
:10106C0000730BE04FF4003308E04FF4005305E03D
:10107C004FF4007302E0202300E00223274A536060
:10108C007B68002283F820207B689B6A002B34D07D
:10109C007B689B6A786898472FE07B681B6C0822FA
:1010AC009A40FB681340002B28D0BB6803F0080360
:1010BC00002B23D07B681B681A687B681B6822F0A6
:1010CC000E021A607B681A6C7B68DB6B012101FADB
:1010DC0002F25A607B6801229A637B68012283F8D2
:1010EC0021207B68002283F820207B681B6B002B5F
:1010FC0004D07B681B6B7868984700BF00BF103723
:10110C00BD4680BD080002401C0002403000024079
:10111C0044000240580002406C00024000000240B3
:10112C0080B48BB000AF7860396000237B62002301
:10113C003B6221E101227B6A02FA03F3FB613B680B
:10114C001B68FA691340BB61BA69FB699A4240F0AB
:10115C0010813B685B68122B34D0122B0DD8022BFC
:10116C002BD0022B04D8002B31D0012B1CD048E003
:10117C00032B43D0112B1BD043E0864A934226D03D
:10118C00844A934206D8844A934220D0834A93429D
:10119C001DD036E0824A934219D0824A934216D02F
:1011AC00814A934213D02CE03B68DB683B6228E019
:1011BC003B68DB6804333B6223E03B68DB68083345
:1011CC003B621EE03B68DB680C333B6219E03B681A
:1011DC009B68002B02D104233B6212E03B689B68A6
:1011EC00012B05D108233B627B68FA691A6108E080
:1011FC0008233B627B68FA695A6102E000233B6278
:10120C0000BFBB69FF2B01D87B6801E07B6804330E
:10121C007B61BB69FF2B02D87B6A9B0002E07B6A77
:10122C00083B9B003B617B691A680F213B6901FA03
:10123C0003F3DB431A40396A3B6901FA03F31A439F
:10124C007B691A603B685B6803F08053002B00F0ED
:10125C009080564B9B69554A43F001039361534B65
:10126C009B6903F00103BB60BB68514A7B6A9B0816
:10127C00023352F82330FB607B6A03F003039B00BC
:10128C000F2202FA03F3DB43FA681340FB607B681E
:10129C00484A93420DD07B68474A934207D07B68FB
:1012AC00464A934201D1022304E0032302E00123C6
:1012BC0000E000237A6A02F0030292009340FA687D
:1012CC001343FB603A497B6A9B080233FA6841F886
:1012DC0023203B685B6803F48033002B06D0384B2B
:1012EC001A683749BB6913430B6006E0344B1A6824
:1012FC00BB69DB43324913400B603B685B6803F40A
:10130C000033002B06D02E4B5A682D49BB69134372
:10131C004B6006E02A4B5A68BB69DB4328491340F3
:10132C004B603B685B6803F48013002B06D0244BA6
:10133C009A682349BB6913438B6006E0204B9A687B
:10134C00BB69DB431E4913408B603B685B6803F44D
:10135C000013002B06D01A4BDA681949BB691343EA
:10136C00CB6006E0164BDA68BB69DB4314491340CB
:10137C00CB607B6A01337B623B681A687B6A22FA1A
:10138C0003F3002B7FF4D6AE00BF2C37BD4680BCD8
:10139C00704700BF00002110000011100000121057
:1013AC00000031100000321000002210001002402A
:1013BC000000014000080140000C014000100140F9
:1013CC000004014080B483B000AF78600B467B8092
:1013DC0013467B707B78002B03D07A887B681A616C
:1013EC0003E07B881A047B681A6100BF0C37BD468A
:1013FC0080BC704780B586B000AF78607B68002BEE
:10140C0001D101236CE27B681B6803F00103002B04
:10141C0000F08780924B5B6803F00C03042B0CD01C
:10142C008F4B5B6803F00C03082B12D18C4B5B6861
:10143C0003F48033B3F5803F0BD1894B1B6803F465
:10144C000033002B6CD07B685B68002B68D10123C8
:10145C0046E27B685B68B3F5803F06D1804B1B6826
:10146C007F4A43F4803313602EE07B685B68002B6B
:10147C000CD17B4B1B687A4A23F480331360784B76
:10148C001B68774A23F4802313601DE07B685B683C
:10149C00B3F5A02F0CD1724B1B68714A43F4802317
:1014AC0013606F4B1B686E4A43F4803313600BE080
:1014BC006B4B1B686A4A23F480331360684B1B68C0
:1014CC00674A23F4802313607B685B68002B13D07E
:1014DC00FFF79CF9386108E0FFF798F902463B6981
:1014EC00D31A642B01D90323FAE15D4B1B6803F477
:1014FC000033002BF0D014E0FFF788F9386108E0D6
:10150C00FFF784F902463B69D31A642B01D90323F4
:10151C00E6E1534B1B6803F40033002BF0D100E0E1
:10152C0000BF7B681B6803F00203002B63D04C4B9D
:10153C005B6803F00C03002B0BD0494B5B6803F08A
:10154C000C03082B1CD1464B5B6803F48033002B37
:10155C0016D1434B1B6803F00203002B05D07B68AC
:10156C001B69012B01D00123BAE13D4B1B6823F011
:10157C00F8027B685B69DB00394913430B603AE086
:10158C007B681B69002B20D0364B01221A60FFF7B9
:10159C003DF9386108E0FFF739F902463B69D31A87
:1015AC00022B01D903239BE12D4B1B6803F0020393
:1015BC00002BF0D02A4B1B6823F0F8027B685B6988
:1015CC00DB00274913430B6015E0264B00221A6001
:1015DC00FFF71CF9386108E0FFF718F902463B6980
:1015EC00D31A022B01D903237AE11D4B1B6803F09C
:1015FC000203002BF0D17B681B6803F00803002B5F
:10160C003AD07B689B69002B19D0174B01221A60CA
:10161C00FFF7FCF8386108E0FFF7F8F802463B6981
:10162C00D31A022B01D903235AE10D4B5B6A03F049
:10163C000203002BF0D0012000F0AAFA1CE00A4BA8
:10164C0000221A60FFF7E2F838610FE0FFF7DEF8CE
:10165C0002463B69D31A022B08D9032340E100BF91
:10166C000010024000004242800442429E4B5B6AE2
:10167C0003F00203002BE9D17B681B6803F0040321
:10168C00002B00F0A6800023FB75974BDB6903F061
:10169C008053002B0DD1944BDB69934A43F080535C
:1016AC00D361914BDB6903F08053BB60BB680123B2
:1016BC00FB758E4B1B6803F48073002B18D18B4B7E
:1016CC001B688A4A43F480731360FFF79FF83861F4
:1016DC0008E0FFF79BF802463B69D31A642B01D94B
:1016EC000323FDE0814B1B6803F48073002BF0D0C7
:1016FC007B68DB68012B06D17B4B1B6A7A4A43F073
:10170C00010313622DE07B68DB68002B0CD1764B58
:10171C001B6A754A23F001031362734B1B6A724AEE
:10172C0023F0040313621CE07B68DB68052B0CD1EF
:10173C006D4B1B6A6C4A43F0040313626A4B1B6AC1
:10174C00694A43F0010313620BE0674B1B6A664A5C
:10175C0023F001031362644B1B6A634A23F00403F6
:10176C0013627B68DB68002B15D0FFF74FF83861EC
:10177C000AE0FFF74BF802463B69D31A41F2883274
:10178C00934201D90323ABE0574B1B6A03F00203CE
:10179C00002BEED014E0FFF739F838610AE0FFF7C0
:1017AC0035F802463B69D31A41F28832934201D98B
:1017BC00032395E04C4B1B6A03F00203002BEED184
:1017CC00FB7D012B05D1484BDB69474A23F0805345
:1017DC00D3617B68DB69002B00F08180424B5B6836
:1017EC0003F00C03082B61D07B68DB69022B46D11C
:1017FC003F4B00221A60FFF709F8386108E0FFF749
:10180C0005F802463B69D31A022B01D9032367E082
:10181C00354B1B6803F00073002BF0D17B681B6AFF
:10182C00B3F5803F08D1304B5B6823F400327B6802
:10183C009B682D4913434B602B4B5B6823F474124C
:10184C007B68196A7B685B6A0B43274913434B60BF
:10185C00274B01221A60FEF7D9FF386108E0FEF72A
:10186C00D5FF02463B69D31A022B01D9032337E07B
:10187C001D4B1B6803F00073002BF0D02FE01C4BAA
:10188C0000221A60FEF7C2FF386108E0FEF7BEFFC7
:10189C0002463B69D31A022B01D9032320E0124BD9
:1018AC001B6803F00073002BF0D118E07B68DB6938
:1018BC00012B01D1012313E00B4B5B68FB60FB6830
:1018CC0003F480327B681B6A9A4206D1FB6803F4EE
:1018DC0070127B685B6A9A4201D0012300E00023FE
:1018EC0018461837BD4680BD0010024000700040FD
:1018FC006000424280B584B000AF786039607B688C
:10190C00002B01D10123D0E06A4B1B6803F00703C5
:10191C003A689A4210D9674B1B6823F00702654955
:10192C003B6813430B60634B1B6803F007033A6877
:10193C009A4201D00123B8E07B681B6803F00203D4
:10194C00002B20D07B681B6803F00403002B05D010
:10195C00594B5B68584A43F4E06353607B681B68DF
:10196C0003F00803002B05D0534B5B68524A43F439
:10197C0060535360504B5B6823F0F0027B689B68AC
:10198C004D4913434B607B681B6803F00103002B2C
:10199C0040D07B685B68012B07D1474B1B6803F475
:1019AC000033002B15D101237FE07B685B68022B91
:1019BC0007D1414B1B6803F00073002B09D10123A5
:1019CC0073E03D4B1B6803F00203002B01D1012394
:1019DC006BE0394B5B6823F003027B685B6836492C
:1019EC0013434B60FEF712FFF8600AE0FEF70EFFA0
:1019FC000246FB68D31A41F28832934201D9032381
:101A0C0053E02D4B5B6803F00C027B685B689B001A
:101A1C009A42EBD1274B1B6803F007033A689A42B2
:101A2C0010D2244B1B6823F0070222493B68134356
:101A3C000B60204B1B6803F007033A689A4201D0F5
:101A4C00012332E07B681B6803F00403002B08D0F1
:101A5C00194B5B6823F4E0627B68DB68164913431F
:101A6C004B607B681B6803F00803002B09D0124BFA
:101A7C005B6823F460527B681B69DB000E491343DF
:101A8C004B6000F021F801460B4B5B681B0903F01F
:101A9C000F030A4AD35C21FA03F3094A1360094B7A
:101AAC001B681846FEF770FE002318461037BD461B
:101ABC0080BD00BF0020024000100240C429000875
:101ACC00000000200400002090B48AB000AF2A4B24
:101ADC003C1D0FCB84E80F00284B1B883B80002358
:101AEC00FB610023BB6100237B6200237B6100232D
:101AFC003B62234B5B68FB61FB6903F00C03042B1B
:101B0C0002D0082B03D02DE01E4B3B622DE0FB696D
:101B1C009B0C03F00F0307F12802134413F8243C29
:101B2C007B61FB6903F48033002B13D0144B5B688F
:101B3C005B0C03F0010307F12802134413F8283C53
:101B4C00BB617B690F4A02FB03F2BB69B2FBF3F387
:101B5C007B6204E07B690C4A02FB03F37B627B6AC9
:101B6C003B6202E0094B3B6200BF3B6A18462837D8
:101B7C00BD4690BC704700BFB0290008C0290008C2
:101B8C00001002400024F40000093D0000127A000D
:101B9C0080B485B000AF78600A4B1B680A4AA2FB80
:101BAC0003235B0A7A6802FB03F3FB6000BFFB684C
:101BBC005A1EFA60002BF9D100BF1437BD4680BC09
:101BCC00704700BF00000020D34D621080B586B076
:101BDC0000AF786000233B610023FB607B681B68CF
:101BEC0003F00103002B7DD00023FB754F4BDB6909
:101BFC0003F08053002B0DD14C4BDB694B4A43F067
:101C0C008053D361494BDB6903F08053BB60BB68E5
:101C1C000123FB75464B1B6803F48073002B18D112
:101C2C00434B1B68424A43F480731360FEF7EEFD8E
:101C3C00386108E0FEF7EAFD02463B69D31A642BD3
:101C4C0001D903236DE03A4B1B6803F48073002B1E
:101C5C00F0D0364B1B6A03F44073FB60FB68002B1F
:101C6C002ED07B685B6803F44073FA689A4227D0E5
:101C7C002E4B1B6A23F44073FB602E4B01221A601F
:101C8C002C4B00221A60294AFB681362FB6803F094
:101C9C000103002B14D0FEF7B9FD38610AE0FEF702
:101CAC00B5FD02463B69D31A41F28832934201D901
:101CBC00032336E01D4B1B6A03F00203002BEED00E
:101CCC001A4B1B6A23F440727B685B6817491343F9
:101CDC000B62FB7D012B05D1144BDB69134A23F0FE
:101CEC008053D3617B681B6803F00203002B08D080
:101CFC000E4B5B6823F440427B689B680B49134393
:101D0C004B607B681B6803F01003002B08D0074B5B
:101D1C005B6823F480027B68DB68044913434B60E7
:101D2C00002318461837BD4680BD00BF0010024086
:101D3C00007000404004424280B582B000AF786031
:101D4C007B68002B01D1012341E07B6893F83D3087
:101D5C00DBB2002B06D17B68002283F83C2078682C
:101D6C00FEF74CFC7B68022283F83D207B681A68E6
:101D7C007B6804331946104600F098FA7B68012200
:101D8C0083F846207B68012283F83E207B68012281
:101D9C0083F83F207B68012283F840207B68012276
:101DAC0083F841207B68012283F842207B68012262
:101DBC0083F843207B68012283F844207B6801224E
:101DCC0083F845207B68012283F83D2000231846C8
:101DDC000837BD4680BD80B582B000AF78607B68A7
:101DEC00002B01D1012341E07B6893F83D30DBB23D
:101DFC00002B06D17B68002283F83C20786800F029
:101E0C0039F87B68022283F83D207B681A687B686E
:101E1C0004331946104600F049FA7B68012283F816
:101E2C0046207B68012283F83E207B68012283F8E0
:101E3C003F207B68012283F840207B68012283F8D5
:101E4C0041207B68012283F842207B68012283F8C1
:101E5C0043207B68012283F844207B68012283F8AD
:101E6C0045207B68012283F83D2000231846083763
:101E7C00BD4680BD80B483B000AF786000BF0C3726
:101E8C00BD4680BC7047000080B584B000AF786060
:101E9C0039603B68002B09D17B6893F83E30DBB28C
:101EAC00012B14BF01230023DBB222E03B68042B7F
:101EBC0009D17B6893F83F30DBB2012B14BF0123AF
:101ECC000023DBB215E03B68082B09D17B6893F843
:101EDC004030DBB2012B14BF01230023DBB208E03E
:101EEC007B6893F84130DBB2012B14BF0123002334
:101EFC00DBB2002B01D0012359E03B68002B04D14D
:101F0C007B68022283F83E2013E03B68042B04D14B
:101F1C007B68022283F83F200BE03B68082B04D13E
:101F2C007B68022283F8402003E07B68022283F85E
:101F3C0041207B681B6801223968184600F02CFC94
:101F4C007B681B681C4A934207D17B681B685A6CE0
:101F5C007B681B6842F400425A647B681B68164A13
:101F6C00934209D07B681B68B3F1804F04D07B6827
:101F7C001B68124A934211D17B681B689B6803F063
:101F8C000703FB60FB68062B10D07B681B681A6884
:101F9C007B681B6842F001021A6007E07B681B68D3
:101FAC001A687B681B6842F001021A60002318460D
:101FBC001037BD4680BD00BF002C0140000400401E
:101FCC0080B584B000AFF860B9607A60FB6893F8B4
:101FDC003C30012B01D10223ACE0FB68012283F8D9
:101FEC003C207B680C2B00F29F8001A252F823F05E
:101FFC003120000835210008352100083521000862
:10200C007120000835210008352100083521000811
:10201C00B3200008352100083521000835210008BF
:10202C00F3200008FB681B68B968184600F096F9A5
:10203C00FB681B689A69FB681B6842F008029A618E
:10204C00FB681B689A69FB681B6822F004029A61A2
:10205C00FB681B689969BB681A69FB681B680A43B3
:10206C009A6162E0FB681B68B968184600F0DCF9FD
:10207C00FB681B689A69FB681B6842F400629A61F2
:10208C00FB681B689A69FB681B6822F480629A6182
:10209C00FB681B689969BB681B691A02FB681B68A3
:1020AC000A439A6141E0FB681B68B968184600F066
:1020BC0025FAFB681B68DA69FB681B6842F00802AA
:1020CC00DA61FB681B68DA69FB681B6822F00402A2
:1020DC00DA61FB681B68D969BB681A69FB681B6805
:1020EC000A43DA6121E0FB681B68B968184600F006
:1020FC006FFAFB681B68DA69FB681B6842F40062C4
:10210C00DA61FB681B68DA69FB681B6822F4806281
:10211C00DA61FB681B68D969BB681B691A02FB682A
:10212C001B680A43DA6100E000BFFB68002283F8F9
:10213C003C20002318461037BD4680BD80B584B0C6
:10214C0000AF786039607B6893F83C30012B01D18B
:10215C000223A6E07B68012283F83C207B680222E4
:10216C0083F83D207B681B689B68FB60FB6823F051
:10217C007703FB60FB6823F47F43FB607B681B6881
:10218C00FA689A603B681B68402B67D0402B0BD8D1
:10219C00102B73D0102B02D8002B6FD078E0202B93
:1021AC006CD0302B6AD073E0702B0DD0702B04D810
:1021BC00502B33D0602B41D06AE0B3F5805F66D0F2
:1021CC00B3F5005F17D063E07B6818683B689968CB
:1021DC003B685A683B68DB6800F0BFFA7B681B6899
:1021EC009B68FB60FB6843F07703FB607B681B68B4
:1021FC00FA689A604CE07B6818683B6899683B68A1
:10220C005A683B68DB6800F0A8FA7B681B689A6820
:10221C007B681B6842F480429A6039E07B681868DE
:10222C003B6859683B68DB681A4600F01FFA7B680C
:10223C001B685021184600F076FA29E07B68186874
:10224C003B6859683B68DB681A4600F03DFA7B68CE
:10225C001B686021184600F066FA19E07B68186864
:10226C003B6859683B68DB681A4600F0FFF97B68ED
:10227C001B684021184600F056FA09E07B681A6882
:10228C003B681B681946104600F04DFA00E000BF91
:10229C007B68012283F83D207B68002283F83C2078
:1022AC00002318461037BD4680BD000080B485B0B1
:1022BC0000AF786039607B681B68FB607B68254ADF
:1022CC00934207D07B68B3F1804F03D07B68224ADE
:1022DC00934208D1FB6823F07003FB603B685B689A
:1022EC00FA681343FB607B681A4A934207D07B68F9
:1022FC00B3F1804F03D07B68174A934208D1FB6837
:10230C0023F44073FB603B68DB68FA681343FB60A3
:10231C00FB6823F080023B685B691343FB607B68BE
:10232C00FA681A603B689A687B68DA623B681A68DC
:10233C007B689A627B68074A934203D13B681A69AF
:10234C007B681A637B6801225A6100BF1437BD4653
:10235C0080BC7047002C01400004004080B487B062
:10236C0000AF786039607B681B6A23F001027B68E0
:10237C001A627B681B6A7B617B685B683B617B686C
:10238C009B69FB60FB6823F07003FB60FB6823F028
:10239C000303FB603B681B68FA681343FB607B69B3
:1023AC0023F002037B613B689B687A6913437B6172
:1023BC007B681C4A93420CD17B6923F008037B6138
:1023CC003B68DB687A6913437B617B6923F0040308
:1023DC007B617B68134A934211D13B6923F4807370
:1023EC003B613B6923F400733B613B685B693A6971
:1023FC0013433B613B689B693A6913433B617B68C0
:10240C003A695A607B68FA689A613B685A687B68DB
:10241C005A637B687A691A6200BF1C37BD4680BC60
:10242C00704700BF002C014080B487B000AF7860CB
:10243C0039607B681B6A23F010027B681A627B6828
:10244C001B6A7B617B685B683B617B689B69FB609B
:10245C00FB6823F4E043FB60FB6823F44073FB60F0
:10246C003B681B681B02FA681343FB607B6923F013
:10247C0020037B613B689B681B017A6913437B617A
:10248C007B681D4A93420DD17B6923F080037B61ED
:10249C003B68DB681B017A6913437B617B6923F022
:1024AC0040037B617B68144A934213D13B6923F44C
:1024BC0080633B613B6923F400633B613B685B6970
:1024CC009B003A6913433B613B689B699B003A69EB
:1024DC0013433B617B683A695A607B68FA689A617E
:1024EC003B685A687B689A637B687A691A6200BF9A
:1024FC001C37BD4680BC7047002C014080B487B0AF
:10250C0000AF786039607B681B6A23F480727B684B
:10251C001A627B681B6A7B617B685B683B617B68CA
:10252C00DB69FB60FB6823F07003FB60FB6823F046
:10253C000303FB603B681B68FA681343FB607B6911
:10254C0023F400737B613B689B681B027A6913431D
:10255C007B617B681D4A93420DD17B6923F4006338
:10256C007B613B68DB681B027A6913437B617B6987
:10257C0023F480637B617B68144A934213D13B69DB
:10258C0023F480533B613B6923F400533B613B686C
:10259C005B691B013A6913433B613B689B691B01F7
:1025AC003A6913433B617B683A695A607B68FA6805
:1025BC00DA613B685A687B68DA637B687A691A620D
:1025CC0000BF1C37BD4680BC704700BF002C0140CB
:1025DC0080B487B000AF786039607B681B6A23F4E5
:1025EC0080527B681A627B681B6A3B617B685B6804
:1025FC007B617B68DB69FB60FB6823F4E043FB6079
:10260C00FB6823F44073FB603B681B681B02FA6891
:10261C001343FB603B6923F400533B613B689B68AD
:10262C001B033A6913433B617B680F4A934209D100
:10263C007B6923F480437B613B685B699B017A690E
:10264C0013437B617B687A695A607B68FA68DA614C
:10265C003B685A687B681A647B683A691A6200BFE7
:10266C001C37BD4680BC7047002C014080B487B03D
:10267C0000AFF860B9607A60FB681B6A7B61FB682D
:10268C001B6A23F00102FB681A62FB689B693B61C1
:10269C003B6923F0F0033B617B681B013A691343F0
:1026AC003B617B6923F00A037B617A69BB68134346
:1026BC007B61FB683A699A61FB687A691A6200BFB0
:1026CC001C37BD4680BC704780B487B000AFF86043
:1026DC00B9607A60FB681B6A23F01002FB681A620F
:1026EC00FB689B697B61FB681B6A3B617B6923F41C
:1026FC0070437B617B681B037A6913437B613B6985
:10270C0023F0A0033B61BB681B013A6913433B6197
:10271C00FB687A699A61FB683A691A6200BF1C37D8
:10272C00BD4680BC704780B485B000AF786039601E
:10273C007B689B68FB60FB6823F07003FB603A6866
:10274C00FB68134343F00703FB607B68FA689A60ED
:10275C0000BF1437BD4680BC704780B487B000AF53
:10276C00F860B9607A603B60FB689B687B617B6951
:10277C0023F47F437B613B681A027B681A43BB6876
:10278C0013437A6913437B61FB687A699A6000BFD3
:10279C001C37BD4680BC704780B487B000AFF86072
:1027AC00B9607A60BB6803F01F03012202FA03F3DD
:1027BC007B61FB681A6A7B69DB431A40FB681A620F
:1027CC00FB681A6ABB6803F01F03796801FA03F30C
:1027DC001A43FB681A6200BF1C37BD4680BC7047A9
:1027EC0080B485B000AF786039607B6893F83C307A
:1027FC00012B01D1022341E07B68012283F83C20AC
:10280C007B68022283F83D207B681B685B68FB6059
:10281C007B681B689B68BB60FB6823F07003FB60E4
:10282C003B681B68FA681343FB607B681B68FA689B
:10283C005A607B681B68144A934209D07B681B68FA
:10284C00B3F1804F04D07B681B68104A93420CD1C3
:10285C00BB6823F08003BB603B685B68BA681343BA
:10286C00BB607B681B68BA689A607B68012283F83E
:10287C003D207B68002283F83C2000231846143747
:10288C00BD4680BC704700BF002C014000040040D6
:10289C0080B485B000AF786039600023FB607B6842
:1028AC0093F83C30012B01D102233DE07B680122DF
:1028BC0083F83C20FB6823F0FF023B68DB68134382
:1028CC00FB60FB6823F440723B689B681343FB601E
:1028DC00FB6823F480623B685B681343FB60FB6816
:1028EC0023F400623B681B681343FB60FB6823F412
:1028FC0080523B681B691343FB60FB6823F4005256
:10290C003B685B691343FB60FB6823F480423B68C4
:10291C00DB691343FB607B681B68FA685A647B684D
:10292C00002283F83C20002318461437BD4680BC97
:10293C007047000070B500250C4E0D4CA41BA41064
:10294C00A54209D100F022F800250A4E0A4CA41B1E
:10295C00A410A54205D170BD56F825309847013515
:10296C00EEE756F8253098470135F2E7D4290008F0
:10297C00D4290008D4290008D829000803460244A9
:10298C00934200D1704703F8011BF9E7F8B500BF7B
:10299C00F8BC08BC9E467047F8B500BFF8BC08BC34
:0429AC009E4670478C
:1029B00002030405060708090A0B0C0D0E0F101080
:1029C00001020000000000000000000001020304FA
:0429D00006070809E5
:0429D40031010008C5
:0429D8000D010008E5
:0C29DC000024F4001000000001000000C6
:040000050800071DCB
:00000001FF
